S01300004C45445F544F47474C45312E73726563EA
S1130000B859002059330000DD330000DD3300000F
S113001000000000000000000000000000000000DC
S1130020000000000000000000000000D1040000F7
S11300300000000000000000F10500003906000087
S1130040DD330000DD330000DD330000DD3300006C
S1130050DD330000DD330000DD330000DD3300005C
S1130060DD330000011A0000191A0000311A0000E3
S1130070491A0000611A0000791A0000DD330000FB
S1130080A5260000B9260000CD260000E1260000C8
S1130090DD330000DD330000DD330000DD3300001C
S11300A0DD330000DD33000010B5064C2378002B4F
S11300B007D1054B002B02D0044800E000BF012308
S11300C0237010BD6C00002000000000D444000028
S11300D0084B10B5002B03D00749084800E000BFC7
S11300E007480368002B00D110BD064B002BFBD042
S11300F09847F9E70000000070000020D444000095
S1130100D44400000000000080B500AF30BFC046FA
S1130110BD4680BD90B585B002AF17491748184B4E
S113012001930123009300232822164CA0470300C7
S11301307B607B68012B0BD113491448144B01934A
S113014001230093002328220E4CA04703007B6068
S11301507B68012B0BD10F490F48104B01930123EE
S1130160009300235022074CA04703007B607B6868
S11301701800BD4603B090BDC443000079020000DE
S11301807039002051070000CC430000A902000090
S113019078390020D4430000D902000074390020CB
S11301A080B584B000AF0200FB1D1A700F23FB184A
S11301B0FA1D1278D2091A700E23FB18FA1D127850
S11301C052091A700D4BBB600F23FB181B78002BD0
S11301D00FD10F23FB181B789B0010229446BC44BC
S11301E06344083B1A680E23FB181B78DB01D31801
S11301F000E000231800BD4604B080BD006000414B
S113020080B582B000AF0200FB1D1A70FB1D1B7885
S11302101800034B984703001800BD4602B080BD88
S1130220A101000080B584B000AF0200FB1D1A706C
S1130230BB1D0A1C1A70FB1D1B7818000D4B984738
S11302400300FB60FB1D1B781F22134001229A4010
S11302501300BB60BB1D1B78002B03D0FB68BA687E
S11302609A6102E0FB68BA685A61C046BD4604B0B0
S113027080BDC0460102000080B582B000AF074BCC
S1130280984703007B6001215B20054B9847FA23C4
S11302905B001800034B9847F5E7C046B50B000018
S11302A025020000C109000080B582B000AF074BF1
S11302B0984703007B6000215B20054B9847FA2395
S11302C05B001800034B9847F5E7C046B50B0000E8
S11302D025020000C109000080B582B000AF074BC1
S11302E0984703007B60064B1800064B9847FA2397
S11302F05B001800044B9847F5E7C046B50B0000B7
S1130300E4430000B1390000C109000080B582B0A7
S113031000AF78607B6808331A007B685A607B689A
S1130320012252429A607B6808331A007B68DA60C3
S11303307B6808331A007B681A617B6800221A60A4
S1130340C046BD4602B080BD80B582B000AF7860C3
S11303507B6800221A61C046BD4602B080BD80B5EC
S113036084B000AF786039607B685B68FB603B6891
S1130370FA685A60FB689A683B689A60FB689B68F5
S11303803A685A60FB683A689A603B687A681A610E
S11303907B681B685A1C7B681A60C046BD4604B063
S11303A080BD80B584B000AF786039603B681B685D
S11303B0BB60BB68013303D17B681B69FB600CE045
S11303C07B680833FB6002E0FB685B68FB60FB68EA
S11303D05B681A68BB689A42F6D9FB685A683B683E
S11303E05A603B685B683A689A603B68FA689A604E
S11303F0FB683A685A603B687A681A617B681B68D4
S11304005A1C7B681A60C046BD4604B080BD80B5E6
S113041084B000AF78607B681B69FB607B685B68B5
S11304207A6892689A607B689B687A6852685A60B6
S1130430FB685A687B689A4203D17B689A68FB68B8
S11304405A607B6800221A61FB681B685A1EFB68AD
S11304501A60FB681B681800BD4604B080BD00002C
S113046080B584B000AFF860B9607A60FB68043B83
S1130470FB60FB68802252041A60FB68043BFB604B
S1130480BA68FB681A60FB68043BFB60084AFB68B7
S11304901A60FB68143BFB607A68FB681A60FB68AF
S11304A0203BFB60FB681800BD4604B080BDC0461D
S11304B0B504000080B582B000AF00237B6072B643
S11304C0C0467B68002BFCD0C046BD4602B080BD50
S11304D080B500AFC046BD4680BD000000000000EE
S11304E00B4A13681868203080F30988022080F3CF
S11304F01488BFF36F8F3FBCAE4608BC04BC62B621
S11305001847C046C046C046C046C046C046C0465E
S113051008380020C046C04680B500AF0E4B0E4AD6
S11305201268FF2109040A431A600B4B0A4A126835
S1130530FF2109060A431A60084B9847084B00221A
S11305401A60084B9847084B9847084B9847002374
S11305501800BD4680BDC04620ED00E079060000CD
S113056000000020E10400002D0D0000B50400008F
S113057080B500AF054B802252051A60BFF34F8F40
S1130580BFF36F8FC046BD4680BDC04604ED00E09A
S113059080B500AF72B6064B1B685A1C044B1A6038
S11305A0BFF34F8FBFF36F8FC046BD4680BDC046BB
S11305B00000002080B500AF064B1B685A1E054B97
S11305C01A60044B1B68002B00D162B6C046BD46BE
S11305D080BDC04600000020EFF3108072B6704763
S11305E0C046180080F310887047C0460000000021
S11305F0EFF309800E4B1A6820381060F0C04446AF
S11306004D4656465F46F0C008B572B600F08EFB04
S113061062B60CBC116808681030F0C8A046A94640
S1130620B246BB4680F309882038F0C81847C04654
S113063008380020C046C04680B582B000AF0A4BDF
S1130640984703007B60094B9847031E03D0084B6F
S1130650802252051A607B681800064B9847C046F2
S1130660BD4602B080BDC046D9050000D10B0000D4
S113067004ED00E0E505000080B500AF074B002263
S11306801A60074B00221A60064B074A1A60034B94
S113069007221A60C046BD4680BDC04610E000E097
S11306A018E000E014E000E032BB000080B584B044
S11306B000AF78600023FB607B680722134004D0FE
S11306C07B680722934308337B60174B9847174B8B
S11306D01B68002B05D1164B072293431A00134BBA
S11306E01A60144B1A687B68D318134A934213D8C0
S11306F0104B1A687B68D2180E4B1B689A420BD9B0
S11307000A4B1A680B4B1B68D318FB60094B1A6819
S11307107B68D218074B1A60084B9847FB6818008F
S1130720BD4604B080BDC046750A000004380020F0
S113073090000020003800206F3700008D0A000070
S113074080B582B000AF7860C046BD4602B080BDBF
S113075090B58DB004AFF860B9603B60BB1D1A80E2
S1130760BB1D1B889B0018001D4B984703007B6131
S11307707B69002B10D04C20194B98470300FB6178
S1130780FB69002B03D0FB697A691A6306E07B6975
S11307901800144B984701E00023FB61FB69002B10
S11307A016D0BB1D1A883C68B968F8680023039307
S11307B0FB6902937B6B01933B6B009323000A4C10
S11307C0A047FB691800094B98470123BB6102E06D
S11307D001235B42BB61BB691800BD4609B090BDF3
S11307E0AD06000041070000F1070000E508000025
S11307F080B586B000AFF860B9607A603B60BB6AD0
S11308001A6B7B6834498C4663449B00D3183B6164
S11308103B69072293433B61BB68002B20D0002334
S11308207B6113E0BA687B69D3181878BA6A3421FB
S11308307B69D3185B18021C1A70BA687B69D318D9
S11308401B78002B06D07B6901337B617B690F2BFE
S1130850E8D900E0C046BB6A43220021995403E072
S1130860BB6A3422002199543B6A042B01D9042326
S11308703B62BB6A3A6ADA62BB6A04331800174BFC
S11308809847BB6A18331800144B9847BB6ABA6A76
S11308901A613B6A0522D21ABB6A9A61BB6ABA6AB8
S11308A05A62BB6A00225A64BB6A482200219954E6
S11308B03A68F9683B691800094B98470200BB6A1B
S11308C01A607B6A002B02D07B6ABA6A1A60C0463F
S11308D0BD4606B080BDC046FFFFFF3F4903000090
S11308E06104000080B582B000AF7860294B98475E
S11308F0294B1B685A1C284B1A60284B1B68002B79
S113090009D1264B7A681A60234B1B68012B10D13E
S1130910234B98470DE0234B1B68002B09D11F4B39
S11309201B68DA6A7B68DB6A9A4202D81B4B7A68D6
S11309301A601D4B1B685A1C1B4B1A607B68DA6AD1
S11309401A4B1B689A4203D97B68DA6A174B1A6000
S11309507B68DA6A13009B009B189B00144A9A1860
S11309607B68043319001000124B9847124B9847C8
S11309700C4B1B68002B08D0084B1B68DA6A7B6899
S1130980DB6A9A4201D20D4B9847C046BD4602B07D
S113099080BDC04691050000C838002008380020FA
S11309A0F50D0000D4380020E4380020D0380020B1
S11309B00C3800205F030000B5050000710500003D
S11309C080B584B000AF78600023FB607B68002BA7
S11309D00AD00A4B98477B6800211800084B9847B7
S11309E0084B98470300FB60FB68002B01D1064BC2
S11309F09847C046BD4604B080BDC046750A000095
S1130A00BD0E00008D0A00007105000090B585B090
S1130A1002AF10491048114B0193002300930023A7
S1130A20C8220F4CA04703007B607B68012B0CD1CC
S1130A3072B60C4B012252421A600B4B01221A600F
S1130A400A4B00221A600A4B9847C046BD4603B0C1
S1130A5090BDC046F0430000C50D0000EC380020F6
S1130A6051070000E8380020D4380020CC3800209A
S1130A701905000080B500AF034B1B685A1C024BDC
S1130A801A60C046BD4680BDF038002080B584B0F1
S1130A9000AF0023FB600023BB60374B9847374B04
S1130AA01B685A1E354B1A60344B1B68002B5BD1F4
S1130AB0334B1B68002B57D02FE0324BDB68DB68CD
S1130AC0FB60FB68183318002F4B9847FB6804330E
S1130AD018002D4B9847FB68DA6A2C4B1B689A4226
S1130AE003D9FB68DA6A294B1A60FB68DA6A1300D7
S1130AF09B009B189B00264A9A18FB680433190034
S1130B001000244B9847FB68DA6A234B1B68DB6AA6
S1130B109A4202D3214B01221A601A4B1B68002B04
S1130B20CBD1FB68002B01D01D4B98471D4B1B6894
S1130B307B607B68002B0FD01B4B9847031E02D0B1
S1130B40164B01221A607B68013B7B607B68002B9B
S1130B50F2D1144B00221A60104B1B68002B03D0F7
S1130B600123BB60114B9847114B9847BB68180091
S1130B70BD4604B080BDC04691050000F038002099
S1130B80C8380020A03800200F040000D03800200E
S1130B900C3800205F03000008380020DC380020F7
S1130BA0810E0000D8380020D10B00007105000030
S1130BB0B505000080B582B000AF044B1B687B60B4
S1130BC07B681800BD4602B080BDC046CC3800200A
S1130BD080B586B000AF00237B61464B1B68002BB9
S1130BE000D077E0444B1B6801333B61424B3A69C8
S1130BF01A603B69002B10D1404B1B68FB60404BD3
S1130C001A683E4B1A603E4BFA681A603D4B1B68EB
S1130C105A1C3C4B1A603C4B98473C4B1B683A6946
S1130C209A4249D3354B1B681B68002B04D1374BC0
S1130C30012252421A603FE0304B1B68DB68DB68DC
S1130C40BB60BB685B687B603A697B689A4203D28D
S1130C502E4B7A681A602FE0BB68043318002C4BC3
S1130C609847BB689B6A002B04D0BB6818331800F4
S1130C70274B9847BB68DA6A264B1B689A4203D90C
S1130C80BB68DA6A234B1A60BB68DA6A13009B00FC
S1130C909B189B00204A9A18BB6804331900100063
S1130CA01E4B9847BB68DA6A1D4B1B68DB6A9A4285
S1130CB0B8D301237B61B5E7194B1B68DA6A16497F
S1130CC013009B009B189B005B58012B07D9012341
S1130CD07B6104E0134B1B685A1C124B1A60124BC5
S1130CE01B68002B01D001237B617B691800BD4682
S1130CF006B080BDF0380020CC38002098380020A1
S1130D009C380020E0380020810E0000E8380020E4
S1130D100F040000D03800200C3800205F030000CE
S1130D2008380020D8380020DC38002080B582B094
S1130D3000AF1F4B1B68002B03D01E4B01221A600F
S1130D4032E01C4B00221A601B4B1B687B6002E0E4
S1130D507B68013B7B6019497A6813009B009B18F0
S1130D609B005B58002BF3D07A6813009B009B1800
S1130D709B00124A9B183B603B685B685A683B685F
S1130D805A603B685A683B6808339A4204D13B680E
S1130D905B685A683B685A603B685B68DA68084B72
S1130DA01A60054B7A681A60C046BD4602B080BD21
S1130DB0F0380020DC380020D03800200C38002027
S1130DC00838002080B582B000AF7860054B9847A2
S1130DD0054B1B68012B01D9044B9847044B9847DA
S1130DE0F4E7C046750E00000C38002071050000C1
S1130DF00901000080B582B000AF00237B600CE0E5
S1130E007A6813009B009B189B00124A9B181800D9
S1130E10114B98477B6801337B607B68042BEFD9C7
S1130E200E4B18000C4B98470D4B18000A4B984773
S1130E300C4B1800084B98470B4B1800064B98476F
S1130E400A4B064A1A600A4B054A1A60C046BD4658
S1130E5002B080BD0C3800200D0300007038002063
S1130E6084380020A0380020B438002098380020AE
S1130E709C38002080B500AFC046BD4680BD000050
S1130E8080B582B000AF0B4B1B681B68002B04D1EC
S1130E90094B012252421A6008E0064B1B68DB68CA
S1130EA0DB687B607B685A68034B1A60C046BD46AA
S1130EB002B080BD98380020E838002080B584B0A6
S1130EC000AF78603960214B1B68FB60204B1B68C6
S1130ED0043318001F4B98477B6801330BD13B68E0
S1130EE0002B08D01A4B1B681A1D1B4B110018004D
S1130EF01A4B984726E0FA687B68D318BB60144BFA
S1130F001B68BA685A60BA68FB689A4209D2144BE3
S1130F101A680F4B1B68043319001000114B9847D3
S1130F2010E0114B1A680A4B1B68043319001000B7
S1130F300C4B98470D4B1B68BA689A4202D20B4B74
S1130F40BA681A60C046BD4604B080BDCC380020E3
S1130F50083800200F040000B43800205F030000AC
S1130F609C380020A303000098380020E8380020B3
S1130F7080B586B000AFF860B9607A6000237B6109
S1130F80FB68002B12D001235B4213E00B4B1A6861
S1130F900B4B1B68B96818009047BB680133BB60F2
S1130FA07B6901337B617B68013B7B607B68002B41
S1130FB0ECDC7B691800BD4606B080BD7C3900209E
S1130FC08439002080B586B000AFF860B9607A60DB
S1130FD000237B61FB68012B1DD0FB68022B1AD018
S1130FE0FB68032B17D001235B4218E00E4B1A68F1
S1130FF00E4B1868BB68591CB9601B7819009047E0
S1131000031E02DA01235B4209E07B6901337B6141
S11310107B68013B7B607B68002BE7D17B69180010
S1131020BD4606B080BDC04680390020843900200A
S113103080B582B000AF0200FB1D1A70064BFA1D8A
S1131040127811001F220A40012191400A001A60FF
S1131050C046BD4602B080BD00E100E080B584B06A
S113106000AF78607B681B68FB60FB68DB695A1E15
S11310709341DBB21800BD4604B080BD80B582B098
S113108000AF7860C0467B681800044B9847031E85
S1131090F9D1C046BD4602B080BDC0465D10000017
S11310A080B582B000AF78607B688022D2051A6078
S11310B07B6800225A607B68FF221A817B680022C9
S11310C09A727B680022DA727B6896229201DA6354
S11310D07B684022012199547B6841220121995463
S11310E07B684222002199547B6843220021995451
S11310F07B6800225A647B6888225203DA607B682A
S11311004822002199547B684922002199547B6824
S11311100022DA647B6800221A657B6800225A6523
S11311207B6800229A657B6800225A617B680022F2
S11311301A827B680022DA767B6800221A767B6842
S113114000221A777B6800225A767B6813229A76EB
S11311507B682022002199547B682922022199541A
S11311607B68802252055A627B68282200219954A8
S11311707B680022DA627B6800221A637B6807229C
S11311805A637B683922002199547B6838220021F4
S11311909954C046BD4602B080BD000080B584B0FD
S11311A000AF78607B681B68FB607B681B68180075
S11311B0094B984703001800084B98477B681800B0
S11311C0074B9847FB681B6802221A43FB681A60A6
S11311D0C046BD4604B080BDBD19000031100000FA
S11311E07D10000080B584B000AFF860B9607A600B
S11311F07A68B968FB681800054B9847031E01D14B
S1131200012300E000231800BD4604B080BDC046A1
S1131210611F000080B582B000AF78600A00FB1C3B
S11312201A70C046FB1C1B789AB27B681100180028
S1131230044B9847031EF5D100231800BD4602B0A5
S113124080BDC046DD21000080B584B000AF786069
S113125039600E23FB1800221A80C0460E23FA18A8
S11312607B6811001800074B9847031EF6D10E2324
S1131270FB181B88DAB23B681A70C046BD4604B03E
S113128080BDC0464122000080B584B000AFF86044
S1131290B9607A60104BFA681A60104B104A1A60F1
S11312A0104B114A1A607A68B968FB6818000F4B32
S11312B098470F4B1B689B68002118000D4B9847FB
S11312C00B4B1B685B68002118000A4B9847C0460B
S11312D0BD4604B080BDC04684390020803900205A
S11312E0151200007C39002049120000E5110000AD
S11312F008000020C539000080B598B000AF3B1D40
S11313001800134B98473B1DC4229203DA603B1D1F
S113131001225242DA643B1D012252421A653B1DEE
S11313200C4A5A653B1D0C4A9A653B1D96221202D3
S1131330DA633A1D09490A4B18000A4B9847084BCF
S11313401800094B9847C046BD4618B080BDC0463A
S1131350A1100000030058000300590000140042CB
S1131360F4380020891200009D11000080B582B07D
S113137000AF78607B6800221A70C046BD4602B098
S113138080BDF0B58DB000AFB860F9603A607B60A5
S1131390002300243B627C6200230024BB61FC61C7
S11313A03F23FB6253E0FB6A203B002B04DB01225A
S11313B09A4013007B610BE0FB6A2022D31A0122BE
S11313C0DA4013000021FA6A91400A0013437B615A
S11313D00122FB6A9A4013003B61BB69FC69DB187C
S11313E06441BB61FC61BB683A691A401500FB6843
S11313F07A691A4016002B00334307D0BB690122D7
S11314001343BB61FB6900221343FB617A68FB69E8
S11314109A4219D87A68FB699A4203D13A68BB693F
S11314209A4211D8B969FA693B687C68C91AA24121
S11314300B001400BB61FC613A6A3B6913433B62D5
S11314407A6A7B6913437B62FB6A013BFB62FB6A3A
S1131450002BA8DA3B6A7C6A18002100BD460DB057
S1131460F0BD80B586B000AFF860B9607A6016232D
S1131470FB1800221A80BB683B61BB685A08FB68F2
S11314809A4201D2402326E0BB685B083B610AE034
S11314903A69FB68D31A3B611623FB181A88162392
S11314A0FB1801321A803A69FB689A42F0D216237B
S11314B0FB181622BA181288013A1A801623FB1850
S11314C01B88FF2B01D9402305E07B681622BA183C
S11314D012881A8000231800BD4606B080BD0000A3
S11314E0F0B5A1B000AFF864B9647A644322BA18C5
S11314F01370002300243B677C6700230024BB6631
S1131500FC6600230024BB67FC6700237B6658232A
S113151040229446BC4463441A78FB6C5A43BB6C27
S11315209A4201D94023B3E04323FB181B78002BD4
S11315303DD1582340229446BC4463441B78DBB21B
S11315403B6100237B61FB6CBB600023FB60524C5E
S1131550BA68FB6838697969A04703000C001B006E
S1131560FB650023BB65BB6C3B6000237B60B86DEF
S1131570F96D3A687B68494CA04703000C003B674F
S11315807C67002101223B6F7C6FC91AA2410B00CA
S11315901400BB66FC66BB6E1B0CFA6E16041E437D
S11315A0BB6E1D043300BB670023FB676AE0432363
S11315B0FB181B78012B65D1FB6C3B6300237B6319
S11315C0582340229446BC4463441B78DBB2BB627C
S11315D00023FB62304CBA6AFB6A386B796BA04714
S11315E003000C00BB65FC65BB6C3B6200237B62A3
S11315F0BB6DFC6D1A002300386A796A274CA0473A
S113160003000C007B667A6E80239B019A4201D909
S113161040233DE0BB6CBB610023FB61B969FA69FF
S11316200B005B0F1000C000F863F86B1843F863FD
S11316300B00DB00BB63BB6DFC6D1A002300B86BB1
S1131640F96B164CA04703000C00BB65FC65BB6D31
S1131650FC6DD9B27B6EDBB2DB00DAB2172340201B
S11316608446BC4463448A1A1A7017234022944661
S1131670BC4463441B785B031A007B6E1343BB6753
S11316800023FB67BB6FFC6F9AB27B6C1A8000234C
S11316901800BD4621B0F0BD45380000831300009A
S11316A080B584B000AF0200FB1D1A70BB1D0A1C7C
S11316B01A701A4B1B7801225340DBB2002B03D162
S11316C0BB1D1B78002B1BD00C23FB181800144BDC
S11316D098470C23FB18FA1D12781A700C23FB1878
S11316E019000F200F4B98470F200F4B98470B4BB7
S11316F0FA1D12785A70094B01221A70002308E06F
S1131700064B5B78FA1D12789A4201D1002300E05F
S11317101D231800BD4604B080BDC04628390020F2
S11317206D1300001D3000005D30000080B582B0F4
S113173000AF78600A00FB1C1A707B684D4A934224
S11317403FD04C4A934206D84B4A93420FD04B4A5F
S1131750934221D089E04A4A934200D15BE0494A4E
S1131760934200D16CE0484A93423FD07DE0FB1C99
S11317701B78012B0AD002DC002B05D075E0022B6C
S113178006D0032B06D070E0404B6FE0404B6DE079
S1131790404B6BE0404B69E0FB1C1B78012B0AD0EB
S11317A002DC002B05D060E0022B06D0032B06D010
S11317B05BE03A4B5AE03A4B58E03A4B56E03A4B2E
S11317C054E0FB1C1B78012B0AD002DC002B05D053
S11317D04BE0022B06D0032B06D046E0334B45E00A
S11317E0334B43E0334B41E0334B3FE0FB1C1B786E
S11317F0012B0AD002DC002B05D036E0022B06D0E8
S1131800032B06D031E02D4B30E02D4B2EE02D4B39
S11318102CE02D4B2AE0FB1C1B78012B0AD002DCA8
S1131820002B05D021E0022B06D0032B06D01CE0B0
S1131830264B1BE0264B19E0264B17E0264B15E000
S1131840FB1C1B78012B0AD002DC002B05D00CE01A
S1131850022B06D0032B06D007E0204B06E0204BDA
S113186004E0204B02E0204B00E000231800BD46BA
S113187002B080BD000C0042000400420008004297
S11318800014004200180042001000420200080048
S11318900200090002000A0002000B00020010000E
S11318A002001100020012000200130003001600DF
S11318B003001700030014000300150002002200B7
S11318C002003500020020000200210002000C008A
S11318D002000D0002000E0002000F0003003E0093
S11318E003003F00030036000300370090B58BB0BF
S11318F000AF78600C23FB180F4A13CA13C313CA32
S113190013C300237B620EE00C23FB187A6A920057
S1131910D3581A007B689A4202D17B6ADBB206E094
S11319207B6A01337B627B6A052BEDD900231800A7
S1131930BD460BB090BDC046F843000080B582B0F0
S113194000AF0200FB1D1A70C046BD4602B080BD48
S113195080B584B000AF02003960FB1D1A70134BD0
S11319601B7801225340DBB2002B15D00023FB600F
S11319700CE00F4BFA6892000E49D1500E4BFA68F6
S113198092000021D150FB680133FB60FB68052BFA
S1131990EFD9064B01221A70FB1D1A78044B9200F2
S11319A03968D150C046BD4604B080BD2A390020F4
S11319B02C3900203D1900008839002090B585B0ED
S11319C000AF78600823FB180B4A116819609288ED
S11319D09A800F23FC187B681800084B9847030073
S11319E023700F23FB181B780822BA18D35C5BB250
S11319F01800BD4605B090BD10440000ED1800006D
S1131A0080B500AF034B1B6800209847C046BD4615
S1131A1080BDC0462C39002080B500AF034B5B6805
S1131A2001209847C046BD4680BDC0462C390020E1
S1131A3080B500AF034B9B6802209847C046BD4663
S1131A4080BDC0462C39002080B500AF034BDB6855
S1131A5003209847C046BD4680BDC0462C390020AF
S1131A6080B500AF034B1B6904209847C046BD46B0
S1131A7080BDC0462C39002080B500AF034B5B69A4
S1131A8005209847C046BD4680BDC0462C3900207D
S1131A9080B582B000AF78607B6800221A70C046BF
S1131AA0BD4602B080BD000080B582B000AF020028
S1131AB03960FB1D1A70FB1D1B78012B0AD0022B09
S1131AC00FD0002B14D10E4B0D4A51693A680A43CA
S1131AD05A610FE00A4B0A4A91693A680A439A61CB
S1131AE008E0074B064AD1693A680A43DA6101E023
S1131AF0172300E000231800BD4602B080BDC04695
S1131B000008004080B582B000AF78607B68802216
S1131B101A707B6800225A707B6801229A707B6875
S1131B200022DA70C046BD4602B080BD80B500AF69
S1131B30054B9B78DBB21A00022313405A1E9341D3
S1131B40DBB21800BD4680BD0020004180B584B0E2
S1131B5000AF78607B681B68FB60FB68DB695A1E1A
S1131B609341DBB21800BD4604B080BD80B582B09D
S1131B7000AF7860C0467B681800044B9847031E8A
S1131B80F9D1C046BD4602B080BDC0464D1B000021
S1131B90B0B58EB002AF786039607B681B68BB61FA
S1131BA07B681B681800C34B984703007B617B6903
S1131BB010333B610023FB620023BB6200237B6282
S1131BC00E23FB1800221A801F23FB1800221A7010
S1131BD01E23FB1810221A703B681B8A8022D20134
S1131BE093421CD08022D201934206DC002B0DD0FC
S1131BF080229201934224D035E0C022D201934244
S1131C0028D080221202934212D02CE01F23FB180A
S1131C1000221A701E23FB1810221A7023E01F23BF
S1131C20FB1800221A701E23FB1808221A701AE0EF
S1131C301F23FB1800221A701E23FB1803221A709C
S1131C4011E01F23FB1801221A701E23FB18102217
S1131C501A7008E01F23FB1801221A701E23FB18B8
S1131C6008221A70C0463B681A683B68DB681A434E
S1131C703B685B6913433A68128A13433A68127EDD
S1131C80120213433A684221525C52071343FB6227
S1131C901D23FB1800221A703B685B683B623B689B
S1131CA020229B5C002B02D03B685B6A3B623B6852
S1131CB020229B5C002B06D03B68DB6B9AB20E2380
S1131CC0FB181A805FE03B6A002B1ED0802252056D
S1131CD093424FD13B6843229B5C01225340DBB2C9
S1131CE0002B46D03B68DD6B3B69DBB21800724BBE
S1131CF0984701001D23FC180E23FB181A00280026
S1131D006E4B98470300237033E03B6843229B5C8F
S1131D10002B14D03B68D86B3B68596C1D23FC180E
S1131D201F23FB181D780E23FA181E23FB181B789B
S1131D3000932B00624DA847030023701AE03B6810
S1131D40DD6B3B69DBB218005B4B98471D23FC1825
S1131D501F23FB1819780E23FA181E23FB181B786F
S1131D6000930B0001002800554DA8470300237081
S1131D7000E0C0461D23FB181B78002B03D01D2355
S1131D80FB181B78E4E03B685B7E002B03D03B68C8
S1131D909A7EBB699A737B6818004A4B98470E2356
S1131DA0FB181A88BB699A81FA6A3B6A1343FB627F
S1131DB03B6843229B5C01225340DBB2002B03D0DF
S1131DC0FB6A04221343FB623B685B7E9A023B6816
S1131DD01B7F5B021A433B6839215B5C1B021A437D
S1131DE03B6840215B5C5B041A433B6841215B5CBC
S1131DF01B041343BB623B6820229B5C002B33D043
S1131E00FB6AE022D2041343FB623B6828229B5CFA
S1131E10002B04D0FB6AC022D2001343FB623B6850
S1131E205B6A002B50D08022520593424DD13B680F
S1131E309B7A1A00BB6A1343BB623B6829229B5CF2
S1131E401A0007231A403B68DB6A1A433B681B6B82
S1131E501A433B685B6B1905E023DB030B40134318
S1131E607A6A13437B6230E03B689B7A1A00BB6A50
S1131E701343BB623B68DB7A1A00BB6A1343BB6241
S1131E803B681B89FF2B0BD0FB6A8022520413434F
S1131E90FB623B681B891A00BB6A1343BB6214E0F4
S1131EA03B68DB7E002B10D0FB6A8022D2041343F4
S1131EB0FB620AE0ED1800000D310000631400001D
S1131EC0E11400006D1B0000C0463B6848229B5C87
S1131ED0002B03D1204B9847031E03D0FB6A8022BA
S1131EE01343FB627B6818001C4B9847BB69BA6AB2
S1131EF05A607B681800194B9847BB69FA6A1A60E4
S1131F00BB691A68F0231B051A40E023DB049A42DC
S1131F1011D0BB699B68072293431A00BB699A607E
S1131F20BB699A683B6838215B5C190007230B4046
S1131F301A43BB699A603B6820229B5C002B06D045
S1131F407B681800054B9847BB697A6A9A6000233E
S1131F501800BD460CB0B0BD2D1B00006D1B000069
S1131F6090B593B000AFF860B9607A603B23FB187A
S1131F7000221A70FB68BA681A60FB681B687B63EE
S1131F80FB681B681800884B984703003B633B6B56
S1131F900133FB623B6B1033BB627B6B1B6801221A
S1131FA0134001D00523FBE07B6B1B680222134026
S1131FB001D01C23F4E00122FB6A9A4013001900AB
S1131FC002207A4B98472423FB181800784B984733
S1131FD07B6849229A5C2423FB181A70BB6ADBB223
S1131FE02422BA1811001800724B9847BB6ADBB25E
S1131FF01800714B98477B6849229B5C00211800AC
S11320006E4B98477B68DA7AFB685A717B6840228A
S11320109A5CFB689A717B6841229A5CFB68DA716E
S11320207B68DA7EFB681A727B681A7FFB685A72D7
S11320307B6820229A5CFB689A723B23FC187A68BE
S1132040FB68110018005E4B9847030023703B2384
S1132050FB181B78002B03D03B23FB181B789FE055
S11320602023FB181800574B98472023FB18002205
S11320705A702023FB1800229A707B68DA6C1023B4
S1132080FB181A607B681A6D1023FB185A607B6872
S11320905A6D1023FB189A607B689A6D1023FB1805
S11320A0DA604723FB1800221A702CE04723FB1840
S11320B01A781023FB189200D3583B643B6C002B16
S11320C009D14723FB181A78BB68110018003E4B4E
S11320D0984703003B643B6C01330DD03B6CDAB290
S11320E02023FB181A703B6C1B0CDBB22022BA189D
S11320F011001800354B98474723FB181A784723DB
S1132100FB1801321A704723FB181B78032BCDD917
S11321100023FB630AE0FA68FB6B02339B00D318CD
S1132120043300221A60FB6B0133FB63FB6B052B4A
S1132130F1D9FB6800229A62FB6800225A62FB68AC
S11321400022DA85FB6800229A85FB683022002190
S11321509954FB68312200219954FB6832220021F2
S11321609954FB68332200219954FB681B68272289
S1132170BC1818000C4B984703002370144A2723FB
S1132180FB181B7811001800124B98472723FB18E3
S11321901A78114B9200F968D1503B23FB181B7835
S11321A01800BD4613B090BDED180000A91A000038
S11321B0911A00001D3000005D300000A1160000DF
S11321C0911B0000051B00002D170000D1320000F8
S11321D06D230000511900008839002080B584B0B7
S11321E000AF78600A00BB1C1A807B681B68FB6028
S11321F07B68DB7901225340DBB2002B01D01C2326
S113220017E07B68DB8D9BB2002B01D0052310E027
S11322107B681800094B9847FB68BA1C12881A851A
S1132220C046FB681B7EDBB21A0002231340F8D0C1
S113223000231800BD4604B080BDC0466D1B0000DD
S113224080B584B000AF786039607B681B68FB6040
S11322507B689B7901225340DBB2002B01D01C2305
S11322605BE07B689B8D9BB2002B01D0052354E07F
S1132270FB681B7EDBB21A000423134001D1052343
S11322804BE07B681800274B9847FB685B8B9AB23E
S11322900B23FB181A700B23FB181B78002B36D06A
S11322A00B23FB181B780222134004D0FB68022284
S11322B05A831A2331E00B23FB181B7804221340A2
S11322C004D0FB6804225A831E2326E00B23FB1848
S11322D01B780122134004D0FB6801225A83132384
S11322E01BE00B23FB181B781022134004D0FB685F
S11322F010225A83422310E00B23FB181B78202260
S1132300134004D0FB6820225A83412305E0FB6874
S11323101B8D9AB23B681A8000231800BD4604B096
S113232080BDC0466D1B000080B584B000AF7860EE
S11323307B681B68FB60FB68DB695A1E9341DBB258
S11323401800BD4604B080BD80B582B000AF78608F
S1132350C0467B681800044B9847031EF9D1C04659
S1132360BD4602B080BDC0462923000080B588B0B8
S113237000AF0200FB1D1A70FB1D1A78A14B9200DE
S1132380D358BB61BB691B687B61BB6918009E4B5A
S113239098477B691B7EDAB21223FB181A807B698B
S11323A09B7DDBB29AB21223FB181221791809889B
S11323B00A401A80BB6930229B5CBA693121525CA5
S11323C01340DAB21023FB181A801223FB181B885F
S11323D00122134044D0BB69DB8D9BB2002B3CD05F
S11323E0BB699B6A1B78DAB21C23FB181A80BB6991
S11323F09B6A5A1CBB699A62BB695B79012B13D136
S1132400BB699B6A1B78DBB21B021AB21C23FB1844
S113241000215B5E13431AB21C23FB181A80BB69AC
S11324209B6A5A1CBB699A621C23FB181B88DB0538
S1132430DB0D9AB27B691A85BB69DB8D9BB2013BCC
S11324409BB2BA69191CD185002B09D17B69012281
S11324501A757B6902229A7502E07B6901221A755A
S11324601223FB181B880222134011D07B6902221D
S11324701A75BB693322002199541023FB181B8859
S11324800122134004D0BB69DB68BA691000984785
S11324901223FB181B880422134000D1B9E0BB6946
S11324A09B8D9BB2002B00D1B0E07B695B8B9AB211
S11324B01F23FB181A701F23FB181B7808221340D4
S11324C007D01F23FB181F22BA18127808218A4349
S11324D01A701F23FB181B78002B50D01F23FB18E6
S11324E01B780222134007D0BB6932221A21995467
S11324F07B6902225A8336E01F23FB181B780422CF
S1132500134007D0BB6932221E2199547B690422EF
S11325105A8328E01F23FB181B780122134007D09D
S1132520BB693222132199547B6901225A831AE030
S11325301F23FB181B781022134007D0BB693222DB
S1132540422199547B6910225A830CE01F23FB1803
S11325501B782022134006D0BB69322241219954B2
S11325607B6920225A831023FB181B880422134002
S11325704FD0BB695B69BA691000984749E07B6931
S11325801B8D9AB20E23FB18D205D20D1A80BB699B
S11325905B6A0E22BA181288D2B21A70BB695B6ADF
S11325A05A1CBB695A62BB695B79012B0DD1BB69AB
S11325B05B6A0E22BA181288120A92B2D2B21A7048
S11325C0BB695B6A5A1CBB695A62BB699B8D9BB22F
S11325D0013B9BB2BA69191C9185002B19D17B6907
S11325E004221A75BB693222002199541023FB1866
S11325F01B88022213400CD0BB691B69BA69100006
S1132600984706E088390020492300007B690422AA
S11326101A751223FB181B881022134010D07B69F3
S113262010221A757B6910221A761023FB181B8856
S11326301022134004D0BB69DB69BA6910009847C3
S11326401223FB181B882022134010D07B69202200
S11326501A757B6920221A761023FB181B8808221E
S1132660134004D0BB699B69BA69100098471223D0
S1132670FB181B880822134010D07B6908221A75A6
S11326807B6908221A761023FB181B88202213402A
S113269004D0BB691B6ABA6910009847C046BD469E
S11326A008B080BD80B500AF0020024B9847C046FB
S11326B0BD4680BDF526000080B500AF0120024B69
S11326C09847C046BD4680BDF526000080B500AFE2
S11326D00220024B9847C046BD4680BDF526000047
S11326E080B500AF0320024B9847C046BD4680BD6D
S11326F0F526000080B584B000AF0200FB1D1A70FF
S1132700FB1D1A78284B9200D358FB60FB681B68AA
S11327109B7ADBB2FA68127E1340DAB2FB68597E08
S11327200B23FB180A401A700B23FB181B78012299
S1132730134008D0FB689B68FA6810009847FB6850
S11327401B6801229A720B23FB181B780222134088
S113275008D0FB68DB68FA6810009847FB681B68C0
S113276002229A720B23FB181B781022134008D004
S1132770FB681B69FA6810009847FB681B68102205
S11327809A720B23FB181B782022134008D0FB6895
S11327905B69FA6810009847FB681B6820229A72EC
S11327A0C046BD4604B080BDA039002080B582B0CB
S11327B000AF104B1B68002B12D1EFF310837B602A
S11327C07B68002B09D172B6BFF35F8F0A4B0022DE
S11327D01A700A4B01221A7002E0084B00221A7088
S11327E0044B1B685A1C034B1A60C046BD4602B01A
S11327F080BDC04644390020040000204839002030
S113280080B500AF0B4B1B685A1E0A4B1A60094B6C
S11328101B68002B0AD1084B1B78DBB2002B05D0B8
S1132820064B01221A70BFF35F8F62B6C046BD46E5
S113283080BDC046443900204839002004000020EF
S113284080B584B000AF0200FB1D1A700F23FB1883
S1132850FA1D1278D2091A700E23FB18FA1D127889
S113286052091A700D4BBB600F23FB181B78002B09
S11328700FD10F23FB181B789B0010229446BC44F5
S11328806344083B1A680E23FB181B78DB01D3183A
S113289000E000231800BD4604B080BD0060004184
S11328A080B582B000AF0200FB1D1A70FB1D1B78BF
S11328B01800034B984703001800BD4602B080BDC2
S11328C04128000080B582B000AF78607B680022A8
S11328D01A707B6801225A707B6800229A70C04685
S11328E0BD4602B080BD000080B584B000AF0200D8
S11328F0FB1D1A70BB1D0A1C1A70FB1D1B781800E7
S11329000D4B98470300FB60FB1D1B781F221340EF
S113291001229A401300BB60BB1D1B78002B03D01F
S1132920FB68BA689A6102E0FB68BA685A61C046FB
S1132930BD4604B080BDC046A128000080B582B069
S113294000AF3B1D18000E4B98473B1D01221A7027
S11329503B1D19005B200B4B984701215B200A4B60
S113296098473B1D00221A703B1D01225A703B1DE3
S113297019004120034B9847C046BD4602B080BDB4
S1132980C5280000B5290000E928000080B582B000
S113299000AF78607B6880221A707B6800225A70CE
S11329A07B6801229A707B680022DA70C046BD46BB
S11329B002B080BD80B584B000AF02003960FB1D59
S11329C01A700C23FB181800104B98470C23FB18A3
S11329D080221A703B681A780C23FB185A703B68E3
S11329E05A780C23FB189A703B689A780C23FB18CE
S11329F0DA700C23FA18FB1D1B7811001800044B25
S1132A009847C046BD4604B080BDC0468D2900002D
S1132A10D132000080B582B000AF78607B680122BB
S1132A205A607B6800225A707B6805221A707B68A2
S1132A3000221A727B6800225A72C046BD4602B058
S1132A4080BD000080B582B000AF0200FB1D1A708B
S1132A50054AFB1D1B78012199400B00DBB2137161
S1132A60C046BD4602B080BD0008004080B582B0BB
S1132A7000AF0200FB1D1A70054AFB1D1B780121E3
S1132A8099400B00DBB29371C046BD4602B080BDD5
S1132A900008004080B500AF0020074B98470200B3
S1132AA0064B1B79DBB21900054B10009847030055
S1132AB01800BD4680BDC0465D2F000000080040E0
S1132AC02D37000080B582B000AF0200FB1D1A70E4
S1132AD0084AFB1D1B780F210B40D9B253680F2005
S1132AE0014049001E2083430B435360C046BD464A
S1132AF002B080BD0040004180B582B000AF02004A
S1132B00FB1D1A70114B9B78DBB2FA1D12789A42A6
S1132B1001D1002315E00D4B9B78DBB25BB2002B97
S1132B2001DA17230DE0094B01229A71074AFB1DB4
S1132B301B789370C046054B9B79DBB2002BFAD00F
S1132B4000231800BD4602B080BDC046000400400A
S1132B5080B500AFC046044BDA6880235B001340A5
S1132B60F9D0C046BD4680BD0010004080B582B09B
S1132B7000AF0200FB1D1A70FB1D1B78072B3FD80A
S1132B809A00224BD3181B689F46214B1B6938E0DF
S1132B90204B1B7D1B079B0FDBB201331A001E4B1E
S1132BA053432EE080231B022BE0194B5B6928E082
S1132BB0174B1B680222134001D1002321E0174B5D
S1132BC09847134B1B6824221340042B09D100207F
S1132BD0134B984702000E4B9B681B041B0C53437A
S1132BE00FE0104B0DE00B4A2823D35CDBB21A0034
S1132BF00223134001D1002303E0054BDB6800E00E
S1132C0000231800BD4602B080BDC0461844000031
S1132C104C3900200010004000093D00512B0000F9
S1132C200D310000006CDC0280B594B000AF284B7D
S1132C30802252009A60274B03229A600020264B80
S1132C4098470220254B9847214A137D8021494209
S1132C500B4313751E4A137D40218B431375204B80
S1132C60DB6906229343FB641D4BFA6C06210A437D
S1132C70DA611C4B984700201B4B984700201B4BE4
S1132C8098473B0018001A4B98473B0005221A70DE
S1132C903B0001225A603B0000221A723B000022D2
S1132CA05A723B0019000020124B98470020124B27
S1132CB09847124B98470300BB64BB6C104A93427D
S1132CC002D80020054B9847C046BD4614B080BDCD
S1132CD00010004000180040C52A0000F92A000036
S1132CE000140040C12D00006D2A0000452A000098
S1132CF0152A0000F12D0000012F0000952A000084
S1132D0000127A0080B582B000AF02003960FB1D6A
S1132D101A70FB1D1B78012B0AD0022B0FD0002B3D
S1132D2014D10E4B0D4A51693A680A435A610FE0B7
S1132D300A4B0A4A91693A680A439A6108E0074BC8
S1132D40064AD1693A680A43DA6101E0172300E0D0
S1132D5000231800BD4602B080BDC04600080040F4
S1132D6080B500AF024B9847C046BD4680BDC04603
S1132D70AD27000080B500AF024B9847C046BD4662
S1132D8080BDC0460128000080B582B000AF0200BB
S1132D90FB1D1A70094B5B68FA1D127801219140E2
S1132DA00A00920013407C22134001D0012300E06A
S1132DB000231800BD4602B080BDC046001C004080
S1132DC080B500AF80210020074B9847074B0122B4
S1132DD01A70C046054B1B78DBB21A00012313405E
S1132DE0F8D1C046BD4680BD052D0000001C004042
S1132DF080B586B000AF02003960FB1D1A703B68D5
S1132E001B787B613B685B78002B04D07B69802254
S1132E10D20013437B613B685B7A002B04D07B694F
S1132E208022120113437B613B685B68012B2CD920
S1132E303B685A683B685B68013B13401AD1002326
S1132E403B610223FB6005E03B6901333B61FB68A6
S1132E505B00FB603B685A68FB689A42F4D83B69A4
S1132E601B047A6913437B617B69802252011343FB
S1132E707B610AE03B685B681B047A6913437B61EE
S1132E807B698022920013437B613B681B7A002B91
S1132E9004D07B698022920113437B61C046FB1DF1
S1132EA01B781800124B9847031EF8D1114B984712
S1132EB01148FB1D1B781049FA1D12780832920044
S1132EC051588022520011407A690A4308339B000A
S1132ED01A50C046FB1D1B781800054B9847031E6B
S1132EE0F8D1064B9847C046BD4606B080BDC046E3
S1132EF0892D0000612D0000001C0040752D00008C
S1132F0080B582B000AF0200FB1D1A70C046FB1DE5
S1132F101B7818000D4B9847031EF8D10C4B9847AB
S1132F200C48FB1D1B780B49FA1D127808329200DD
S1132F305258802149000A4308339B001A50064B1B
S1132F409847C046BD4602B080BDC046892D0000EA
S1132F50612D0000001C0040752D000080B586B076
S1132F6000AF0200FB1D1A70C046FB1D1B78180041
S1132F70244B9847031EF8D1234B9847234AFB1D43
S1132F801B7808339B009B585B075B0FDBB2180070
S1132F901F4B984703007B611C4AFB1D1B780833B9
S1132FA09B009B58DB04DB0FDAB21323FB181A7067
S1132FB0164AFB1D1B7808339B009B581B0C9BB2C5
S1132FC0FB60144B98471323FB181B78002B09D183
S1132FD0FB68012B06D9104BF96878699847030000
S1132FE07B610AE01323FB181B78002B05D0FB68D8
S1132FF001337A69DA4013007B617B691800BD46AE
S113300006B080BD892D0000612D0000001C004029
S11330106D2B0000752D00002D37000080B582B0A7
S113302000AF02003960FB1D1A70FB1D1B781800ED
S1133030084B98470849FB1D1B783A681278100022
S11330400722024020339B005A50C046BD4602B0BE
S113305080BDC046B5300000001C004080B582B081
S113306000AF0200FB1D1A700F4B98470F49FB1D60
S11330701B780E48FA1D1278203292001258402014
S1133080024320339B005A50C046084AFB1D1B785C
S113309020339B009B5840221340F6D0044B9847A2
S11330A0C046BD4602B080BD612D0000001C00403A
S11330B0752D000080B582B000AF0200FB1D1A70B0
S11330C00F4B98470F49FB1D1B780E48FA1D1278C9
S11330D02032920012584020824320339B005A50E1
S11330E0C046084AFB1D1B7820339B009B58402296
S11330F01340F6D1044B9847C046BD4602B080BD8C
S1133100612D0000001C0040752D000080B584B0C6
S113311000AF0200FB1D1A700D4B98470D4AFB1DB2
S11331201B7820339B009B585B075B0FDAB20F239D
S1133130FB181A70084B98470F23FB181B781800CC
S1133140064B984703001800BD4604B080BDC04636
S1133150612D0000001C0040752D00005D2F000053
S113316080B584B000AF0200FB1D1A700F23FB185A
S1133170FA1D1278D2091A700E23FB18FA1D127860
S113318052091A700D4BBB600F23FB181B78002BE0
S11331900FD10F23FB181B789B0010229446BC44CC
S11331A06344083B1A680E23FB181B78DB01D31811
S11331B000E000231800BD4604B080BD006000415B
S11331C080B588B000AFF860B9607A600023FB6115
S11331D07B68DB7801225340DBB2002B35D07B685F
S11331E01B78802B0BD0FB69802252021343FB61B6
S11331F07B681B781B061A00FB691343FB617B6821
S11332005B78002B03D07B685B78022B10D1FB69C1
S1133210802292021343FB617B689B78002B04D0CD
S1133220FB698022D2021343FB61FB68BA685A60CF
S11332307B685B78012B03D07B685B78022B07D11A
S1133240FB69224A1340FB6102E0FB68BA685A60DA
S1133250BB681B041B0CBB61BB681B0C7B61BA699C
S1133260FB691343A022D2051A43FB689A627A6968
S1133270FB691343D02212061A43FB689A627B68E7
S1133280DB7801225340DBB2002B1AD0FA69802389
S1133290DB0213400AD07B689B78012B03D1FB68C7
S11332A0BA689A6102E0FB68BA685A617B685B7825
S11332B0012B03D07B685B78022B02D1FB68BA68D0
S11332C09A60C046BD4608B080BDC046FFFFFBFF04
S11332D080B584B000AF02003960FB1D1A70FB1D7D
S11332E01B7818000A4B98470300FB60FB1D1B78F2
S11332F01F22134001229A401300BB603A68B96848
S1133300FB681800034B9847C046BD4604B080BD17
S113331061310000C131000080B500AFC046BD4638
S113332080BD000080B500AF064B9847064B984718
S1133330064B9847064B9847064B9847C046BD46F0
S113334080BDC046292C00003D290000193300002F
S1133350193300001933000080B582B000AF164B5A
S11333607B60164B3B607A683B689A420CD007E05E
S11333703B681A1D3A607A68111D796012681A60F8
S11333803A680F4B9A42F3D30E4B3B6004E03B6820
S11333901A1D3A6000221A603A680B4B9A42F6D31F
S11333A00A4B7B600A4B7A68FF218A439A60094B77
S11333B09847094B9847FEE7D444000000000020DA
S11333C06C0000206C000020B439002000000000D4
S11333D000ED00E099380000D936000080B500AF58
S11333E0FEE7000080B584B000AF78600A4B1B682C
S11333F0002B02D1084B094A1A60074B1B68FB607B
S1133400054B1A687B68D218034B1A60FB681800D6
S1133410BD4604B080BDC04664390020B8590020C0
S113342080B582B000AF786001235B421800BD46CE
S113343002B080BD80B582B000AF786039603B686F
S1133440802292015A6000231800BD4602B080BD5C
S113345080B582B000AF786001231800BD4602B089
S113346080BD80B584B000AFF860B9607A60002395
S11334701800BD4604B080BDB0B582B000AF0200F4
S11334803960FB1D1A70FB1D1B787F2B32D92F4C22
S1133490FB1D1B781A000F231340083B99082B4A85
S11334A0FB1D1B7818000F230340083B9B080633C1
S11334B09B00D31804331B68FA1D127810000322F2
S11334C00240D200FF2090400200D2431A403B68E1
S11334D09B01FF201840FB1D1B781D0003232B407C
S11334E0DB00984003001A438B1D9B00E318043350
S11334F01A6027E0164CFB1D1B785BB29B0814492D
S1133500FA1D127852B29208C03292005258F91D34
S11335100978080003210140C900FF208840010008
S1133520C94311403A689201FF201040FA1D1278F5
S1133530150003222A40D200904002000A43C033FF
S11335409B001A51C046BD4602B0B0BD00ED00E07C
S113355000E100E080B582B000AF78607B68013B99
S11335600C4A934201D9012310E00B4B7A68013ACB
S11335705A6001235B4203211800084B9847064B0D
S113358000229A60044B07221A6000231800BD46EB
S113359002B080BDFFFFFF0010E000E079340000BE
S11335A080B584B000AF0200FB1D1A700F23FB1816
S11335B0FA1D1278D2091A700E23FB18FA1D12781C
S11335C052091A700D4BBB600F23FB181B78002B9C
S11335D00FD10F23FB181B789B0010229446BC4488
S11335E06344083B1A680E23FB181B78DB01D318CD
S11335F000E000231800BD4604B080BD0060004117
S113360080B582B000AF0200FB1D1A70FB1D1B7851
S11336101800034B984703001800BD4602B080BD54
S1133620A135000080B582B000AF78607B680022CD
S11336301A707B6801225A707B6800229A70C04617
S1133640BD4602B080BD000080B584B000AF02006A
S1133650FB1D1A70BB1D0A1C1A70FB1D1B78180079
S11336600D4B98470300FB60FB1D1B781F22134082
S113367001229A401300BB60BB1D1B78002B03D0B2
S1133680FB68BA689A6102E0FB68BA685A61C0468E
S1133690BD4604B080BDC0460136000080B582B08E
S11336A000AF3B1D1800094B98473B1D01221A70BF
S11336B03B1D19005B20064B984701215B20054BFD
S11336C09847C046BD4602B080BDC04625360000BE
S11336D0B52900004936000080B500AF0A4B984771
S11336E00A4B984700200A4B984703001800094BDF
S11336F09847094B1800094B9847094B9847094BC1
S11337009847094B9847FEE725330000F91200005B
S11337105D2F00005535000038440000B139000029
S11337209D360000150100000D0A00000022430828
S11337308B4274D303098B425FD3030A8B4244D375
S1133740030B8B4228D3030C8B420DD3FF220902B7
S113375012BA030C8B4202D31212090265D0030B76
S11337608B4219D300E0090AC30B8B4201D3CB036C
S1133770C01A5241830B8B4201D38B03C01A5241AE
S1133780430B8B4201D34B03C01A5241030B8B42B0
S113379001D30B03C01A5241C30A8B4201D3CB029B
S11337A0C01A5241830A8B4201D38B02C01A524180
S11337B0430A8B4201D34B02C01A5241030A8B4283
S11337C001D30B02C01A5241CDD2C3098B4201D39B
S11337D0CB01C01A524183098B4201D38B01C01A19
S11337E0524143098B4201D34B01C01A5241030990
S11337F08B4201D30B01C01A5241C3088B4201D33F
S1133800CB00C01A524183088B4201D38B00C01AEB
S1133810524143088B4201D34B00C01A5241411A12
S113382000D20146524110467047FFE701B500201F
S113383000F006F802BDC0460029F7D076E77047CD
S11338407047C046F0B5CE46474615042D0C2E00F1
S113385080B50704140C3F0C9946030C7E435D436A
S1133860674363437F19340CE4199C46A54203D98A
S113387080235B029846C4444B4651434343360479
S1133880360C250C24046544A41959184919200040
S11338900CBC90469946F0BD70B500260C4D0D4CFD
S11338A0641BA410A64209D1002600F003FE0A4DB1
S11338B00A4C641BA410A64205D170BDB300EB589A
S11338C098470136EEE7B300EB5898470136F2E724
S11338D0C0440000C0440000C0440000C4440000D0
S11338E003008218934200D1704719700133F9E73D
S11338F070B505000E00002804D08369002B01D1A7
S113390000F0DAFAAB69AC68002B02D1280000F0B1
S1133910D3FA244B9C420FD16C68A3891B0702D5B0
S11339202369002B20D12100280000F057F900283A
S11339301AD00120404270BD1B4B9C4201D1AC689F
S1133940EBE71A4B9C42E8D1EC68E6E7013B013611
S1133950A360002B04DAA269934216DB0A2914D06F
S113396023685A1C226019703178A3680029EDD1AC
S1133970013BA360002B0FDA22000A31280000F07B
S1133980D7F8431CD5D00A20D5E72200280000F040
S1133990CFF8431CE8D1CCE70A2023685A1C2260E4
S11339A01870C8E7744400009444000054440000B4
S11339B010B5034B01001868FFF79AFF10BDC0460D
S11339C0080000204A424A41802310B55200DB001F
S11339D000F002F810BD0000F0B51D004F4B85B09B
S11339E01E6804000F000092002E05D0B369002B5E
S11339F002D1300000F060FA494B9C4250D1746807
S1133A00009B022B05D0012B00D984E0002D00DAA5
S1133A1081E02100300000F0E1F9616B002908D059
S1133A2023004433994202D0300000F051FB0023BC
S1133A3063630023A3616360A3891B0603D5216923
S1133A40300000F045FBA389364A1340A381009B54
S1133A50022B5AD003AB02AA2100300000F0C2FAB4
S1133A60A3891843A081002D24D1029D280000F0D1
S1133A7025FB0195071E42D1029B0193AB4239D12C
S1133A80012040420223A2891343A3810023A3609F
S1133A9023004733236023610123636105B0F0BD34
S1133AA0214B9C4201D1B468AAE7204B9C42A7D188
S1133AB0F468A5E7002FD9D0B369002B02D13000F8
S1133AC000F0FAF9009B012B03D1A389009A1A4351
S1133AD0A2810820A389276027616561184018D056
S1133AE0012018400023984211D06D42A360A561C3
S1133AF01800D3E7019800F0E1FA071EC0D0802334
S1133B00A289019D1343A381D6E70020BAE7A560EB
S1133B10C4E7A060C2E701204042BFE708000020DC
S1133B20744400005CF3FFFF94440000544400001C
S1133B30F8B505000E001400002804D08369002B9A
S1133B4001D100F0B9F9224B9C422DD16C68A369D4
S1133B50A360A3891B0731D52369002B2ED02368CA
S1133B602269F7B2981A6369F6B2984205DB21001C
S1133B70280000F033F9002826D1A3680130013B66
S1133B80A36023685A1C22601F706369984204D0A2
S1133B90A389DB071AD50A2E18D12100280000F0CA
S1133BA01DF9002812D00FE00A4B9C4201D1AC68E9
S1133BB0CDE7094B9C42CAD1EC68C8E72100280034
S1133BC000F00CF80028CAD0012676423000F8BD77
S1133BD0744400009444000054440000364B70B513
S1133BE01D6806000C00002D05D0AB69002B02D126
S1133BF0280000F061F9314B9C420FD16C680C2312
S1133C00E25E93B219072DD4D90611D409230120F9
S1133C10336037331343A381404270BD284B9C4229
S1133C2001D1AC68EBE7274B9C42E8D1EC68E6E7AE
S1133C305B0713D5616B002908D0230044339942F4
S1133C4002D0300000F044FA002363632422A389E5
S1133C509343A38100236360236923600823A2891B
S1133C601343A3812369002B0BD1A0218022A389B4
S1133C70890092000B40934203D02100300000F0F1
S1133C80D9F90123A289134011D00023A3606369E9
S1133C905B42A361002023698342BED10C23E25E10
S1133CA01306BAD540231343A3810138B5E792071D
S1133CB000D46369A360EDE70800002074440000A9
S1133CC09444000054440000F7B58A8905000C00B0
S1133CD0130760D44B68002B04DC0B6C002B01DC55
S1133CE00020FEBDE76A002FFAD000232E682B6067
S1133CF080235B011A4034D0606DA3895B0706D52D
S1133D006368C01A636B002B01D0236CC01A0200D5
S1133D10216A00232800E76AB847A189431C06D119
S1133D202B681D2B31D82C4ADA40D3072DD500231C
S1133D30636023692360CB0405D5431C02D12B683F
S1133D40002B00D16065616B2E600029C8D0230070
S1133D504433994202D0280000F0BAF9002060638D
S1133D60BFE70123216A2800B847431CC5D12B684B
S1133D70002BC2D01D2B01D0162B01D12E60AFE732
S1133D804023A2891343A381ABE740230B430120C3
S1133D90A3814042A5E70F69002FA1D00B680F60F3
S1133DA0DB1B01930023920700D14B69A360019BA5
S1133DB0002B00DC94E7019B3A00216A2800A66AE4
S1133DC0B047002803DC4023A2891343DFE7019BAB
S1133DD03F181B1A0193EAE7010040200B6970B5F4
S1133DE005000C00002B01D1002070BD002804D078
S1133DF08369002B01D100F05FF80B4B9C4209D181
S1133E006C680C22A35E002BEED021002800FFF783
S1133E105BFFEAE7054B9C4201D1AC68F1E7044B38
S1133E209C42EED1EC68ECE774440000944400003A
S1133E305444000010B5024900F0B2F810BDC04669
S1133E40DD3D0000002310B504000360436083607F
S1133E5081814366C2810361436183611900082241
S1133E605C30FFF73DFD054B24626362044BA362A3
S1133E70044BE362044B236310BDC046454200007B
S1133E806D420000A5420000D142000070B56825D3
S1133E904A1E55430E002900743100F063F9041ED4
S1133EA008D000212A00016046600C30A06068320E
S1133EB0FFF716FD200070BD836913B50400002BC5
S1133EC028D18364C3640365134B144A1B6882625C
S1133ED00193984201D101238361200000F020F86E
S1133EE06060200000F01CF8A060200000F018F8CA
S1133EF00022E06004216068FFF7A4FF0122092189
S1133F00A068FFF79FFF02221221E068FFF79AFFE3
S1133F100123A36113BDC04650440000353E000098
S1133F20F8B51E4B07001E68B369002B02D13000A0
S1133F30FFF7C2FF4836B4687368013B04D53368A1
S1133F40002B07D03668F6E70C22A55E002D0DD0B5
S1133F506834F2E704213800FFF798FF3060002846
S1133F60F0D10C2304003B602000F8BD01232000A5
S1133F705B42E3810233A38165662560A5606560C9
S1133F8025616561A561082229005C30FFF7A8FC62
S1133F906563A563A564E564E6E7C0465044000094
S1133FA0F7B504000700002601914834002C01D124
S1133FB03000FEBD6368A5680093009B013B00933D
S1133FC001D52468F2E7AB89012B08D90E22AB5E38
S1133FD0013304D029003800019B98470643683513
S1133FE0EBE7000070B50E001D000E23C95E90B013
S1133FF01400002907DA00232B60B3891B0611D4AF
S11340008023DB000FE001AA00F08EF90028F2DB28
S1134010F022029B12021340054A9B185A42534154
S11340202B60EDE740230020236010B070BDC04634
S113403000E0FFFFF7B502268B8905000C00334230
S113404006D0230047332360236101236361F7BD56
S113405001AB6A46FFF7C6FF00990700280000F08D
S113406081F8002808D10C22A35E9A05EFD403221C
S113407093431E43A681E4E70F4BAB628023A289DE
S113408020601343A381009B20616361019B002B8B
S11340900DD00E23E15E280000F058F9002806D068
S11340A00322A38993431A0001231343A381A08904
S11340B03843A081CBE7C046353E000010B5034B22
S11340C00100186800F04EF810BDC046080000203A
S11340D070B50500002910D00C1F2368002B00DAEE
S11340E0E418280000F058F91D4A1368002B05D184
S11340F063601460280000F050F970BDA34209D930
S1134100216860188342F3D118685B684118216004
S1134110EEE713005A68002A01D0A242F9D91968BF
S11341205818A0420BD12068091858181960824207
S1134130E0D110685268411819605A60DAE7A04269
S113414002D90C232B60D5E721686018824203D181
S1134150106852684118216062605C60CAE7C0461A
S113416068390020032370B5CD1C9D430835060033
S11341700C2D1ED20C25A9421DD8300000F00CF9DC
S1134180254A14682100002919D1244C2368002BE6
S113419003D1300000F044F820602900300000F022
S11341A03FF8431C2CD10C233000336000F0F5F8A9
S11341B003E0002DDFDA0C233360002070BD0B68B0
S11341C05B1B1AD40B2B03D90B60CC18256003E0BE
S11341D08C420ED163681360300000F0DEF82000DA
S11341E007220B30231D9043C31AE7D05A42E250F2
S11341F0E4E74B6863600C00EEE70C004968C2E733
S11342000323C41C9C43A042E0D0211A300000F0D8
S113421007F8431CDAD1C6E7683900206C3900205E
S1134220002370B5064C050008002360FFF7DAF898
S1134230431C03D12368002B00D02B6070BDC04603
S1134240B039002070B50C000E25495F00F0A6F8C7
S1134250002803DB636D1B18636570BDA389024AE4
S11342601340A381F9E7C046FFEFFFFFF8B51F0035
S11342708B8905000C001600DB0505D50E23C95EED
S11342800022022300F074F8A389054A2800134091
S1134290A38132000E23E15E3B0000F01FF8F8BD5D
S11342A0FFEFFFFF70B50C000E25495F00F060F8CA
S11342B0A389421C03D1054A1340A38170BD802207
S11342C052011343A3816065F8E7C046FFEFFFFF87
S11342D010B50E23C95E00F015F810BD70B50500C9
S11342E0080011000022064C22601A00FCF76AFE46
S11342F0431C03D12368002B00D02B6070BDC04643
S1134300B0390020002370B5064C05000800236076
S1134310FFF786F8431C03D12368002B00D02B60E1
S113432070BDC046B0390020002370B5064C0500AE
S1134330080011002360FFF77DF8431C03D12368B4
S1134340002B00D02B6070BDB0390020002370B565
S1134350064C050008002360FFF77AF8431C03D1DC
S11343602368002B00D02B6070BDC046B0390020FC
S113437070B50500080011000022064C22601A00E6
S1134380FFF76FF8431C03D12368002B00D02B6088
S113439070BDC046B03900207047704770B5050045
S11343A0080011000022064C22601A00FCF7E0FD10
S11343B0431C03D12368002B00D02B6070BDC04682
S11343C0B03900204C45445F4F4E00004C45445FDB
S11343D04646000053455249414C5F5441534B5F9C
S11343E0310000002D2D2D30312E0D0A000000006B
S11343F049444C450000000000040042000800420B
S1134400000C004200100042001400420018004258
S1134410090A0B0C0D0E00008A2B0000002C000072
S1134420002C0000A42B0000AA2B0000902B0000FD
S1134430B02B0000E62B00007363686564756C653F
S11344407220737461727465642E2E0D0A0000006C
S11344500C0000200000000000000000000000002C
S11344600000000000000000000000000000000048
S11344700000000000000000000000000000000038
S11344800000000000000000000000000000000028
S11344900000000000000000000000000000000018
S11344A00000000000000000000000000000000008
S11344B000000000F8B5C046F8BC08BC9E46704732
S11344C0D1000000F8B5C046F8BC08BC9E46704751
S10744D0A90000003B
S11344D4AAAAAAAA010000000C00002000000000FF
S11344E4744400009444000054440000000000009C
S11344F400000000000000000000000000000000B4
S113450400000000000000000000000000000000A3
S11345140000000000000000000000000000000093
S11345240000000000000000000000000000000083
S10F453400000000000000000000000077
S903335970
