:10000000E8580020ED220000712300007123000059
:1000100000000000000000000000000000000000E0
:10002000000000000000000000000000712300003C
:10003000000000000000000071230000F525000012
:100040007123000071230000712300007123000060
:100050007123000071230000712300007123000050
:100060007123000071230000712300007123000040
:100070007123000071230000712300007123000030
:10008000D10C0000E50C0000F90C00000D0D000083
:100090007123000071230000712300007123000010
:1000A000712300007123000010B5064C2378002B4B
:1000B00007D1054B002B02D0044800E000BF01230C
:1000C000237010BD0C000020000000007C28000000
:1000D000084B10B5002B03D00749084800E000BFCB
:1000E00007480368002B00D110BD064B002BFBD046
:1000F0009847F9E700000000100000207C2800006D
:100100007C2800000000000090B585B002AF0849CF
:100110000848094B01930123009300230A22074C4E
:10012000A04703007B60C0461800BD4603B090BDE9
:10013000F827000019020000B8380020610500000F
:1001400080B584B000AF0200FB1D1A700F23FB18AE
:10015000FA1D1278D2091A700E23FB18FA1D1278B4
:1001600052091A700D4BBB600F23FB181B78002B34
:100170000FD10F23FB181B789B0010229446BC4420
:100180006344083B1A680E23FB181B78DB01D31865
:1001900000E000231800BD4604B080BD00600041AF
:1001A00080B582B000AF0200FB1D1A70FB1D1B78EA
:1001B0001800034B984703001800BD4602B080BDED
:1001C0004101000080B584B000AF0200FB1D1A7031
:1001D000BB1D0A1C1A70FB1D1B7818000D4B98479D
:1001E0000300FB60FB1D1B781F22134001229A4075
:1001F0001300BB60BB1D1B78002B03D0FB68BA68E3
:100200009A6102E0FB68BA685A61C046BD4604B014
:1002100080BDC046A101000080B500AF01215B2078
:10022000014B9847FAE7C046C501000080B582B08F
:1002300000AF78607B6808331A007B685A607B687F
:10024000012252429A607B6808331A007B68DA60A8
:100250007B6808331A007B681A617B6800221A6089
:10026000C046BD4602B080BD80B582B000AF7860A8
:100270007B6800221A61C046BD4602B080BD80B5D1
:1002800084B000AF786039607B685B68FB603B6876
:10029000FA685A60FB689A683B689A60FB689B68DA
:1002A0003A685A60FB683A689A603B687A681A61F3
:1002B0007B681B685A1C7B681A60C046BD4604B048
:1002C00080BD80B584B000AF78607B681B69FB603F
:1002D0007B685B687A6892689A607B689B687A68DA
:1002E00052685A60FB685A687B689A4203D17B68FF
:1002F0009A68FB685A607B6800221A61FB681B6879
:100300005A1EFB681A60FB681B681800BD4604B0E3
:1003100080BD000080B584B000AFF860B9607A603D
:10032000FB68043BFB60FB68802252041A60FB6898
:10033000043BFB60BA68FB681A60FB68043BFB6027
:10034000084AFB681A60FB68143BFB607A68FB682C
:100350001A60FB68203BFB60FB681800BD4604B0D8
:1003600080BDC0466903000080B582B000AF0023A5
:100370007B6072B6C0467B68002BFCD0C046BD4691
:1003800002B080BD0000000000000000000000007E
:100390000B4A13681868203080F30988022080F324
:1003A0001488BFF36F8F3FBCAE4608BC04BC62B676
:1003B0001847C046C046C046C046C046C046C046B4
:1003C000A8370020C046C04680B500AF0E4B0E4A8D
:1003D0001268FF2109040A431A600B4B0A4A12688B
:1003E000FF2109060A431A60084B9847084B002270
:1003F0001A60084B9847084B9847084B98470023CA
:100400001800BD4680BDC04620ED00E08904000014
:100410000000002091030000D50A000069030000DD
:1004200080B500AF054B802252051A60BFF34F8F95
:10043000BFF36F8FC046BD4680BDC04604ED00E0EF
:1004400080B500AF72B6064B1B685A1C044B1A608D
:10045000BFF34F8FBFF36F8FC046BD4680BDC04610
:100460000000002080B500AF064B1B685A1E054BEC
:100470001A60044B1B68002B00D162B6C046BD4613
:1004800080BDC0460000002080B500AF074B0022B1
:100490001A60074B00221A60064B074A1A60034B8A
:1004A00007221A60C046BD4680BDC04610E000E08D
:1004B00018E000E014E000E032BB000080B584B03A
:1004C00000AF78600023FB607B680722134004D0F4
:1004D0007B680722934308337B60174B9847174B81
:1004E0001B68002B05D1164B072293431A00134BB0
:1004F0001A60144B1A687B68D318134A934213D8B6
:10050000104B1A687B68D2180E4B1B689A420BD9A5
:100510000A4B1A680B4B1B68D318FB60094B1A680F
:100520007B68D218074B1A60084B9847FB68180085
:10053000BD4604B080BDC04639080000A437002085
:1005400030000020A03700206F3700005108000065
:1005500080B582B000AF7860C046BD4602B080BDB5
:1005600090B58DB004AFF860B9603B60BB1D1A80D8
:10057000BB1D1B889B0018001D4B984703007B6127
:100580007B69002B10D04C20194B98470300FB616E
:10059000FB69002B03D0FB697A691A6306E07B696B
:1005A0001800144B984701E00023FB61FB69002B06
:1005B00016D0BB1D1A883C68B968F86800230393FD
:1005C000FB6902937B6B01933B6B009323000A4C06
:1005D000A047FB691800094B98470123BB6102E063
:1005E00001235B42BB61BB691800BD4609B090BDE9
:1005F000BD0400005105000001060000F5060000E2
:1006000080B586B000AFF860B9607A603B60BB6AC5
:100610001A6B7B6834498C4663449B00D3183B615A
:100620003B69072293433B61BB68002B20D000232A
:100630007B6113E0BA687B69D3181878BA6A3421F1
:100640007B69D3185B18021C1A70BA687B69D318CF
:100650001B78002B06D07B6901337B617B690F2BF4
:10066000E8D900E0C046BB6A43220021995403E068
:10067000BB6A3422002199543B6A042B01D904231C
:100680003B62BB6A3A6ADA62BB6A04331800174BF2
:100690009847BB6A18331800144B9847BB6ABA6A6C
:1006A0001A613B6A0522D21ABB6A9A61BB6ABA6AAE
:1006B0005A62BB6A00225A64BB6A482200219954DC
:1006C0003A68F9683B691800094B98470200BB6A11
:1006D0001A607B6A002B02D07B6ABA6A1A60C04635
:1006E000BD4606B080BDC046FFFFFF3F6902000067
:1006F0001503000080B582B000AF7860294B9847A1
:10070000294B1B685A1C284B1A60284B1B68002B6E
:1007100009D1264B7A681A60234B1B68012B10D134
:10072000234B98470DE0234B1B68002B09D11F4B2F
:100730001B68DA6A7B68DB6A9A4202D81B4B7A68CC
:100740001A601D4B1B685A1C1B4B1A607B68DA6AC7
:100750001A4B1B689A4203D97B68DA6A174B1A60F6
:100760007B68DA6A13009B009B189B00144A9A1856
:100770007B68043319001000124B9847124B9847BE
:100780000C4B1B68002B08D0084B1B68DA6A7B688F
:10079000DB6A9A4201D20D4B9847C046BD4602B073
:1007A00080BDC0464104000068380020A837002002
:1007B000950B000074380020843800207038002029
:1007C000AC3700207F020000650400002104000017
:1007D00090B585B002AF10491048114B019300232A
:1007E0000093002364220F4CA04703007B607B68CA
:1007F000012B0CD172B60C4B012252421A600B4BEA
:1008000001221A600A4B00221A600A4B9847C04620
:10081000BD4603B090BDC046002800006D0B00002F
:100820008C380020610500008838002074380020D2
:100830006C380020C903000080B500AF034B1B6873
:100840005A1C024B1A60C046BD4680BD903800203D
:1008500080B584B000AF0023FB600023BB60374B42
:100860009847374B1B685A1E354B1A60344B1B6830
:10087000002B5BD1334B1B68002B57D02FE0324B42
:10088000DB68DB68FB60FB68183318002F4B984768
:10089000FB68043318002D4B9847FB68DA6A2C4B31
:1008A0001B689A4203D9FB68DA6A294B1A60FB6815
:1008B000DA6A13009B009B189B00264A9A18FB6873
:1008C000043319001000244B9847FB68DA6A234B65
:1008D0001B68DB6A9A4202D3214B01221A601A4B31
:1008E0001B68002BCBD1FB68002B01D01D4B984718
:1008F0001D4B1B687B607B68002B0FD01B4B984700
:10090000031E02D0164B01221A607B68013B7B60FC
:100910007B68002BF2D1144B00221A60104B1B682D
:10092000002B03D00123BB60114B9847114B984714
:10093000BB681800BD4604B080BDC046410400003D
:10094000903800206838002040380020C3020000A2
:1009500070380020AC3700207F020000A83700204C
:100960007C380020210C0000783800207909000034
:10097000210400006504000080B586B000AF0023AC
:100980007B61464B1B68002B00D077E0444B1B6813
:1009900001333B61424B3A691A603B69002B10D12D
:1009A000404B1B68FB60404B1A683E4B1A603E4B45
:1009B000FA681A603D4B1B685A1C3C4B1A603C4B52
:1009C00098473C4B1B683A699A4249D3354B1B68A0
:1009D0001B68002B04D1374B012252421A603FE0C2
:1009E000304B1B68DB68DB68BB60BB685B687B60A7
:1009F0003A697B689A4203D22E4B7A681A602FE0DC
:100A0000BB68043318002C4B9847BB689B6A002BCB
:100A100004D0BB6818331800274B9847BB68DA6AC4
:100A2000264B1B689A4203D9BB68DA6A234B1A60CB
:100A3000BB68DA6A13009B009B189B00204A9A1837
:100A4000BB680433190010001E4B9847BB68DA6A74
:100A50001D4B1B68DB6A9A42B8D301237B61B5E763
:100A6000194B1B68DA6A164913009B009B189B0000
:100A70005B58012B07D901237B6104E0134B1B68F2
:100A80005A1C124B1A60124B1B68002B01D0012319
:100A90007B617B691800BD4606B080BD90380020A0
:100AA0006C380020383800203C3800208038002086
:100AB000210C000088380020C3020000703800209C
:100AC000AC3700207F020000A837002078380020D3
:100AD0007C38002080B582B000AF1F4B1B68002B14
:100AE00003D01E4B01221A6032E01C4B00221A6018
:100AF0001B4B1B687B6002E07B68013B7B601949F4
:100B00007A6813009B009B189B005B58002BF3D066
:100B10007A6813009B009B189B00124A9B183B604D
:100B20003B685B685A683B685A603B685A683B6838
:100B300008339A4204D13B685B685A683B685A6044
:100B40003B685B68DA68084B1A60054B7A681A6084
:100B5000C046BD4602B080BD903800207C380020E1
:100B600070380020AC370020A837002080B582B054
:100B700000AF7860044B9847044B1B68012BF9D9F0
:100B8000034B9847F6E7C046150C0000AC37002031
:100B90002104000080B582B000AF00237B600CE030
:100BA0007A6813009B009B189B00124A9B18180040
:100BB000114B98477B6801337B607B68042BEFD92E
:100BC0000E4B18000C4B98470D4B18000A4B9847DA
:100BD0000C4B1800084B98470B4B1800064B9847D6
:100BE0000A4B064A1A600A4B054A1A60C046BD46BF
:100BF00002B080BDAC3700202D020000103800206C
:100C00002438002040380020543800203838002094
:100C10003C38002080B500AFC046BD4680BD000016
:100C200080B582B000AF0B4B1B681B68002B04D152
:100C3000094B012252421A6008E0064B1B68DB6830
:100C4000DB687B607B685A68034B1A60C046BD4610
:100C500002B080BD383800208838002080B584B0CC
:100C600000AFF860B960FB1D1A70FB1D1A78FB68B5
:100C700002329200B968D150FB1D1B78022B07D1BC
:100C8000FB681B7E10221343DAB2FB681A7619E068
:100C9000FB1D1B78032B07D1FB681B7E202213430F
:100CA000DAB2FB681A760DE0FB681B7E5AB2FB1DB8
:100CB0001B78012199400B005BB213435BB2DAB29F
:100CC000FB681A7600231800BD4604B080BD000002
:100CD00080B500AF0020024B9847C046BD4680BD9E
:100CE000210D000080B500AF0120024B9847C0469F
:100CF000BD4680BD210D000080B500AF0220024B33
:100D00009847C046BD4680BD210D000080B500AFAC
:100D10000320024B9847C046BD4680BD210D000010
:100D200080B584B000AF0200FB1D1A70FB1D1A785D
:100D3000284B9200D358FB60FB681B689B7ADBB2A0
:100D4000FA68127E1340DAB2FB68597E0B23FB1857
:100D50000A401A700B23FB181B780122134008D09D
:100D6000FB689B68FA6810009847FB681B680122C3
:100D70009A720B23FB181B780222134008D0FB68E1
:100D8000DB68FA6810009847FB681B6802229A72B9
:100D90000B23FB181B781022134008D0FB681B693B
:100DA000FA6810009847FB681B6810229A720B23A0
:100DB000FB181B782022134008D0FB685B69FA6897
:100DC00010009847FB681B6820229A72C046BD46F7
:100DD00004B080BDBC38002080B582B000AF786020
:100DE0007B6800221A70C046BD4602B080BD00007C
:100DF00080B582B000AF02003960FB1D1A70FB1D88
:100E00001B78012B0AD0022B0FD0002B14D10E4BD4
:100E10000D4A51693A680A435A610FE00A4B0A4A7F
:100E200091693A680A439A6108E0074B064AD1691A
:100E30003A680A43DA6101E0172300E00023180052
:100E4000BD4602B080BDC0460008004080B582B0FB
:100E500000AF78607B6880221A707B6800225A702D
:100E60007B6801229A707B680022DA70C046BD461A
:100E700002B080BD80B584B000AF78607B681B682D
:100E8000FB60FB681B695A1E9341DBB21800BD462C
:100E900004B080BD90B589B000AF78600C23FB181A
:100EA0000E4A13CA13C312681A600023FB610DE0D7
:100EB0000C23FB18FA699200D2587B689A4202D13F
:100EC000FB69DBB206E0FB690133FB61FB69032BC5
:100ED000EED900231800BD4609B090BD08280000D7
:100EE00090B593B000AFF860B9607A6000237B647E
:100EF0004323FB1800221A703F23FC18BB6818001C
:100F0000D44B9847030023703823FB18D24A126849
:100F10001A601823FB18D14A13CA13C313CA13C388
:100F200003CA03C34223FB1800221A700EE04223B7
:100F3000FB181A78FB68023292000021D15042233C
:100F4000FB181A784223FB1801321A704223FB184F
:100F50001B78032BEBD9FB6800221A76FB68002272
:100F60005A763F23FB181A78BD4B9200F968D1508E
:100F7000FB68BA681A607B6834229A5CFB689A76D0
:100F80007B68DB78082B07D13F23FB181B780122F5
:100F9000134001D01723ECE17B68DA78FB681A7103
:100FA000BB681B680122134001D00523E1E1BB6847
:100FB000DB7ADBB21A000223134001D01C23D8E1F4
:100FC000BB681B680222134001D01C23D1E17B685F
:100FD0001B7C002B17D01423FB181800A14B98473B
:100FE0007B689B69DAB21423FB181A701423FB1870
:100FF00001225A707B685B69DBB21422BA181100B7
:101000001800994B98477B681B7F002B17D014233F
:10101000FB181800934B98477B685B6ADAB214237D
:10102000FB181A701423FB1801225A707B681B6A84
:10103000DBB21422BA18110018008B4B98473F23DB
:10104000FB181B785A001823FB189200D358D8B20B
:101050003F23FB181B785B005A1C1823FB189200D7
:10106000D3581900814B98477B68DB78082B1CD13B
:101070003F23FB181B780133032B16DC3F23FB189F
:101080001B7801335A001823FB189200D358D8B2AA
:101090003F23FB181B7801335B005A1C1823FB18F5
:1010A0009200D3581900714B98471023FB18180071
:1010B0006F4B98477B681A781023FB181A703F23F0
:1010C000FB181B783822BA18D35C1022BA1811000A
:1010D0001800684B98473F23FB181B783822BA1832
:1010E000D35C1800644B98477B68DA787B68DB79BF
:1010F0001343DBB21A007B689B8813437B64412354
:10110000FB1800221A7018E04123FB181B787A683C
:10111000D3185B7A002B09D04123FB181B7880225F
:1011200052029A4013007A6C13437B644123FB18EC
:101130001A784123FB1801321A704123FB181B78DF
:10114000012BE1D94023FB1800221A7018E040233C
:10115000FB181B787A68D318DB7A002B09D0402360
:10116000FB181B78802252039A4013007A6C1343B9
:101170007B644023FB181A784023FB1801321A7055
:101180004023FB181B78012BE1D97B685B789A011F
:101190007B689B78DB0113431A007B6C13437B64F1
:1011A000C046FB681800354B9847031EF9D1BB6851
:1011B0007A6C1A60C046FB681800304B9847031ED3
:1011C000F9D17B689A79BB681A737B685B7B002BCB
:1011D00003D04323FB1804221A707B689B7B002BEF
:1011E00007D04323FB184322BA18127801210A437F
:1011F0001A70C046FB681800204B9847031EF9D1AF
:10120000BB68FF221A714323FB181B78002B0BD0FD
:10121000C046FB681800194B9847031EF9D1BB68FC
:101220004322BA1812785A717B681A7ABB685A73CB
:10123000C046FB681800114B9847031EF9D1FB68A4
:101240001B79042B1CD0082B00D16EE0002B49D059
:101250008EE0C046950E0000182800001C280000F3
:10126000BC3800204D0E000065220000F10D00008A
:10127000D90D0000B11F0000F11F0000750E000025
:10128000C046FB6818003D4B9847031EF9D17B68A8
:1012900028229A5CBB681A75C046FB681800374B59
:1012A0009847031EF9D17B6829229A5CBB68DA76DD
:1012B000C046FB681800314B9847031EF9D17B6884
:1012C0002A229A5CBB681A77C046FB6818002B4B31
:1012D0009847031EF9D17B682B229A5CBB685A772A
:1012E000002346E0C046FB681800244B9847031EC5
:1012F000F9D17B681A8DBB689A82C046FB681800DA
:101300001E4B9847031EF9D17B685A8DBB689A83A0
:10131000C046FB681800194B9847031EF9D17B683B
:101320009A8DBB68DA83002323E0C046FB6818006F
:10133000124B9847031EF9D17B689A6ABB685A61C1
:10134000C046FB6818000D4B9847031EF9D17B6817
:10135000DA6ABB68DA61C046FB681800074B984739
:10136000031EF9D17B681A6BBB681A62002300E088
:1013700017231800BD4613B090BDC046750E00007F
:1013800080B586B000AFF8607A600B23FB180A1CAA
:101390001A70FB681B687B61C046FB681800384BFD
:1013A0009847031EF9D1FB681B79042B04D0082B46
:1013B00043D0002B20D05EE00B23FB181B78012BC1
:1013C0001AD8FB689B7E002B0BD00B23FB181B78D5
:1013D0007A68D0B27A693021D3185B18021C1A706F
:1013E00008E00B23FB181B787A68D1B27A69D3180E
:1013F0000A1C1A7700233FE00B23FB181B78012BF4
:101400001BD8FB689B7E002B09D00B23FB181A7896
:101410007B6899B27B6918325200D1520BE00B23E2
:10142000FB181B787A6891B27A690C335B00D31889
:1014300004330A1C1A8000231EE00B23FB181B78C0
:10144000012B18D8FB689B7E002B08D00B23FB18C0
:101450001A787B690C3292007968D15009E00B232D
:10146000FB181B787A6906339B00D31804337A681B
:101470001A60002300E017231800BD4606B080BDA7
:10148000750E000080B582B000AF0200FB1D1A701F
:10149000064BFA1D127811001F220A4001219140CB
:1014A0000A001A60C046BD4602B080BD00E100E0FF
:1014B00080B584B000AF78607B681B68FB60FB6818
:1014C0001B695A1E9341DBB21800BD4604B080BDB3
:1014D00080B582B000AF78607B6800221A707B68AC
:1014E0000022DA707B6800229A807B6800229A7161
:1014F0007B680022DA717B6800225A707B680022C8
:101500009A707B6800221A727B6800225A727B688C
:1015100000229A727B680022DA727B6800221A73BA
:101520007B6800229A737B6800225A737B680022D2
:101530001A747B6800225A617B6800229A617B687A
:1015400000221A777B6800221A627B6800225A62A6
:101550007B6800221A857B6800225A857B680022FE
:101560009A857B68342200219954C046BD4602B05A
:1015700080BD000080B584B000AF78607B681B68D8
:10158000FB60C0467B681800064B9847031EF9D1E4
:10159000FB681B6802221A43FB681A60C046BD46FE
:1015A00004B080BDB114000080B582B000AF786097
:1015B000044A7B68D3181B785BB21800BD4602B0A2
:1015C00080BDC0460400002080B582B000AF7860C6
:1015D0000A00FB1C1A707B681B681800224B984796
:1015E00003001800214B984703001800204B984730
:1015F000FB1C1B78022B0BD17B685B7E10221343F4
:10160000DAB27B685A767B681B6810225A7226E031
:10161000FB1C1B78032B0BD17B685B7E20221343C2
:10162000DAB27B685A767B681B6820225A7216E011
:101630007B685B7E5AB2FB1C1B78012199400B0032
:101640005BB213435BB2DAB27B685A767B681B6885
:10165000FA1C1278012191400A00D2B25A72C04697
:10166000BD4602B080BDC046950E0000A915000021
:101670008514000080B582B000AF7860094B1B88EC
:1016800080339AB2074B1A80064B1B8801331A002D
:101690007B6800211800044B9847C046BD4602B045
:1016A00080BDC046943800208113000080B58EB004
:1016B00000AF3B001800114B98473B000022DA7046
:1016C0003B0002229A713B00012252425A853B00A4
:1016D00001221A743B0030225A613B0004229A61B5
:1016E0003A000749074B1800074B9847054B18006D
:1016F000064B9847C046BD460EB080BDD1140000D1
:1017000000280042CC380020E10E000075150000D2
:1017100080B500AF0649074B02221800064B9847D8
:10172000044B02211800054B9847C046BD4680BDBA
:1017300075160000CC3800205D0C0000C9150000B3
:1017400080B582B000AF104B1B68002B12D1EFF3B5
:1017500010837B607B68002B09D172B6BFF35F8F6B
:101760000A4B00221A700A4B01221A7002E0084B41
:1017700000221A70044B1B685A1C034B1A60C046A7
:10178000BD4602B080BDC046983800200800002049
:101790009C38002080B500AF0B4B1B685A1E0A4BCB
:1017A0001A60094B1B68002B0AD1084B1B78DBB26F
:1017B000002B05D0064B01221A70BFF35F8F62B673
:1017C000C046BD4680BDC046983800209C380020E9
:1017D0000800002080B584B000AF0200FB1D1A7025
:1017E0000F23FB18FA1D1278D2091A700E23FB186A
:1017F000FA1D127852091A700D4BBB600F23FB18AB
:101800001B78002B0FD10F23FB181B789B00102295
:101810009446BC446344083B1A680E23FB181B78AB
:10182000DB01D31800E000231800BD4604B080BDE2
:101830000060004180B582B000AF0200FB1D1A704D
:10184000FB1D1B781800034B984703001800BD468A
:1018500002B080BDD517000080B582B000AF7860BF
:101860007B6800221A707B6801225A707B68002214
:101870009A70C046BD4602B080BD000080B584B0FD
:1018800000AF0200FB1D1A70BB1D0A1C1A70FB1D65
:101890001B7818000D4B98470300FB60FB1D1B785D
:1018A0001F22134001229A401300BB60BB1D1B780E
:1018B000002B03D0FB68BA689A6102E0FB68BA6843
:1018C0005A61C046BD4604B080BDC0463518000010
:1018D00080B582B000AF3B1D18000E4B98473B1DF2
:1018E00001221A703B1D19005B200B4B9847012108
:1018F0005B200A4B98473B1D00221A703B1D0122BA
:101900005A703B1D19004120034B9847C046BD4605
:1019100002B080BD59180000491900007D18000070
:1019200080B582B000AF78607B6880221A707B68D7
:1019300000225A707B6801229A707B680022DA705C
:10194000C046BD4602B080BD80B584B000AF020085
:101950003960FB1D1A700C23FB181800104B9847B8
:101960000C23FB1880221A703B681A780C23FB1892
:101970005A703B685A780C23FB189A703B689A7827
:101980000C23FB18DA700C23FA18FB1D1B781100CE
:101990001800044B9847C046BD4604B080BDC04601
:1019A000211900006522000080B582B000AF786088
:1019B0007B6801225A607B6800225A707B6805228E
:1019C0001A707B6800221A727B6800225A72C04625
:1019D000BD4602B080BD000080B582B000AF0200FD
:1019E000FB1D1A70054AFB1D1B78012199400B0055
:1019F000DBB21371C046BD4602B080BD0008004096
:101A000080B582B000AF0200FB1D1A70054AFB1DB5
:101A10001B78012199400B00DBB29371C046BD4693
:101A200002B080BD0008004080B500AF0020074B29
:101A300098470200064B1B79DBB21900054B1000DA
:101A4000984703001800BD4680BDC046F11E000047
:101A5000000800409926000080B582B000AF020067
:101A6000FB1D1A70084AFB1D1B780F210B40D9B2D1
:101A700053680F20014049001E2083430B435360ED
:101A8000C046BD4602B080BD0040004180B582B076
:101A900000AF0200FB1D1A70114B9B78DBB2FA1DE0
:101AA00012789A4201D1002315E00D4B9B78DBB2EE
:101AB0005BB2002B01DA17230DE0094B01229A716A
:101AC000074AFB1D1B789370C046054B9B79DBB220
:101AD000002BFAD000231800BD4602B080BDC046DE
:101AE0000004004080B500AFC046044BDA68802394
:101AF0005B001340F9D0C046BD4680BD00100040D9
:101B000080B582B000AF0200FB1D1A70FB1D1B7870
:101B1000072B3FD89A00224BD3181B689F46214BB6
:101B20001B6938E0204B1B7D1B079B0FDBB2013389
:101B30001A001E4B53432EE080231B022BE0194B4F
:101B40005B6928E0174B1B680222134001D1002378
:101B500021E0174B9847134B1B6824221340042B9A
:101B600009D10020134B984702000E4B9B681B04C1
:101B70001B0C53430FE0104B0DE00B4A2823D35CA2
:101B8000DBB21A000223134001D1002303E0054B0E
:101B9000DB6800E000231800BD4602B080BDC046EF
:101BA0003C280000A03800200010004000093D0043
:101BB000E51A0000A1200000006CDC0280B594B0A2
:101BC00000AF284B802252009A60274B03229A6074
:101BD0000020264B98470220254B9847214A137D29
:101BE000802149420B4313751E4A137D40218B43CC
:101BF0001375204BDB6906229343FB641D4BFA6C83
:101C000006210A43DA611C4B984700201B4B98477A
:101C100000201B4B98473B0018001A4B98473B008D
:101C200005221A703B0001225A603B0000221A7202
:101C30003B0000225A723B0019000020124B9847CB
:101C40000020124B9847124B98470300BB64BB6CB3
:101C5000104A934202D80020054B9847C046BD4623
:101C600014B080BD0010004000180040591A000058
:101C70008D1A000000140040551D0000011A0000DC
:101C8000D9190000A9190000851D0000951E00004B
:101C9000291A000000127A0080B582B000AF02005D
:101CA0003960FB1D1A70FB1D1B78012B0AD0022B1B
:101CB0000FD0002B14D10E4B0D4A51693A680A43DC
:101CC0005A610FE00A4B0A4A91693A680A439A61DD
:101CD00008E0074B064AD1693A680A43DA6101E035
:101CE000172300E000231800BD4602B080BDC046A7
:101CF0000008004080B500AF024B9847C046BD4683
:101D000080BDC0464117000080B500AF024B984728
:101D1000C046BD4680BDC0469517000080B582B064
:101D200000AF0200FB1D1A70094B5B68FA1D1278A8
:101D3000012191400A00920013407C22134001D0FF
:101D4000012300E000231800BD4602B080BDC0465C
:101D5000001C004080B500AF80210020074B984751
:101D6000074B01221A70C046054B1B78DBB21A00E4
:101D700001231340F8D1C046BD4680BD991C000028
:101D8000001C004080B586B000AF02003960FB1D2A
:101D90001A703B681B787B613B685B78002B04D032
:101DA0007B698022D20013437B613B685B7A002B06
:101DB00004D07B698022120113437B613B685B681E
:101DC000012B2CD93B685A683B685B68013B134088
:101DD0001AD100233B610223FB6005E03B6901331C
:101DE0003B61FB685B00FB603B685A68FB689A429A
:101DF000F4D83B691B047A6913437B617B698022B9
:101E0000520113437B610AE03B685B681B047A69FB
:101E100013437B617B698022920013437B613B68A3
:101E20001B7A002B04D07B698022920113437B61D3
:101E3000C046FB1D1B781800124B9847031EF8D1B3
:101E4000114B98471148FB1D1B781049FA1D127859
:101E50000832920051588022520011407A690A4398
:101E600008339B001A50C046FB1D1B781800054B19
:101E70009847031EF8D1064B9847C046BD4606B0AA
:101E800080BDC0461D1D0000F51C0000001C004068
:101E9000091D000080B582B000AF0200FB1D1A7062
:101EA000C046FB1D1B7818000D4B9847031EF8D148
:101EB0000C4B98470C48FB1D1B780B49FA1D1278F8
:101EC000083292005258802149000A4308339B008F
:101ED0001A50064B9847C046BD4602B080BDC0466A
:101EE0001D1D0000F51C0000001C0040091D000025
:101EF00080B586B000AF0200FB1D1A70C046FB1D06
:101F00001B781800244B9847031EF8D1234B9847A1
:101F1000234AFB1D1B7808339B009B585B075B0F14
:101F2000DBB218001F4B984703007B611C4AFB1D66
:101F30001B7808339B009B58DB04DB0FDAB21323BA
:101F4000FB181A70164AFB1D1B7808339B009B5820
:101F50001B0C9BB2FB60144B98471323FB181B7898
:101F6000002B09D1FB68012B06D9104BF968786961
:101F7000984703007B610AE01323FB181B78002BB2
:101F800005D0FB6801337A69DA4013007B617B6915
:101F90001800BD4606B080BD1D1D0000F51C0000E8
:101FA000001C0040011B0000091D000099260000D4
:101FB00080B582B000AF02003960FB1D1A70FB1DB6
:101FC0001B781800084B98470849FB1D1B783A6896
:101FD000127810000722024020339B005A50C0465E
:101FE000BD4602B080BDC04649200000001C004034
:101FF00080B582B000AF0200FB1D1A700F4B9847EE
:102000000F49FB1D1B780E48FA1D127820329200F2
:1020100012584020024320339B005A50C046084AC1
:10202000FB1D1B7820339B009B5840221340F6D0A9
:10203000044B9847C046BD4602B080BDF51C000069
:10204000001C0040091D000080B582B000AF0200F6
:10205000FB1D1A700F4B98470F49FB1D1B780E484C
:10206000FA1D127820329200125840208243203309
:102070009B005A50C046084AFB1D1B7820339B002A
:102080009B5840221340F6D1044B9847C046BD46AA
:1020900002B080BDF51C0000001C0040091D0000BE
:1020A00080B584B000AF0200FB1D1A700D4B98473D
:1020B0000D4AFB1D1B7820339B009B585B075B0F71
:1020C000DAB20F23FB181A70084B98470F23FB183E
:1020D0001B781800064B984703001800BD4604B053
:1020E00080BDC046F51C0000001C0040091D00001A
:1020F000F11E000080B584B000AF0200FB1D1A7015
:102100000F23FB18FA1D1278D2091A700E23FB1840
:10211000FA1D127852091A700D4BBB600F23FB1881
:102120001B78002B0FD10F23FB181B789B0010226C
:102130009446BC446344083B1A680E23FB181B7882
:10214000DB01D31800E000231800BD4604B080BDB9
:102150000060004180B588B000AFF860B9607A6077
:102160000023FB617B68DB7801225340DBB2002B4C
:1021700035D07B681B78802B0BD0FB698022520204
:102180001343FB617B681B781B061A00FB69134332
:10219000FB617B685B78002B03D07B685B78022B4C
:1021A00010D1FB69802292021343FB617B689B780C
:1021B000002B04D0FB698022D2021343FB61FB6831
:1021C000BA685A607B685B78012B03D07B685B78C8
:1021D000022B07D1FB69224A1340FB6102E0FB6836
:1021E000BA685A60BB681B041B0CBB61BB681B0C44
:1021F0007B61BA69FB691343A022D2051A43FB68CD
:102200009A627A69FB691343D02212061A43FB686B
:102210009A627B68DB7801225340DBB2002B1AD034
:10222000FA698023DB0213400AD07B689B78012B7C
:1022300003D1FB68BA689A6102E0FB68BA685A6128
:102240007B685B78012B03D07B685B78022B02D123
:10225000FB68BA689A60C046BD4608B080BDC046FB
:10226000FFFFFBFF80B584B000AF02003960FB1DAB
:102270001A70FB1D1B7818000A4B98470300FB607F
:10228000FB1D1B781F22134001229A401300BB60E4
:102290003A68B968FB681800034B9847C046BD46CA
:1022A00004B080BDF52000005521000080B500AFCE
:1022B000C046BD4680BD000080B500AF064B9847C4
:1022C000064B9847064B9847064B9847064B98474E
:1022D000C046BD4680BDC046BD1B0000D1180000F1
:1022E000AD220000AD220000AD22000080B582B01A
:1022F00000AF164B7B60164B3B607A683B689A4296
:102300000CD007E03B681A1D3A607A68111D7960AD
:1023100012681A603A680F4B9A42F3D30E4B3B6037
:1023200004E03B681A1D3A6000221A603A680B4BC1
:102330009A42F6D30A4B7B600A4B7A68FF218A43A4
:102340009A60094B9847094B9847FEE77C280000A4
:10235000000000200C0000200C000020E8380020C5
:102360000000000000ED00E0B1270000452600005D
:1023700080B500AFFEE70000B0B582B000AF02004C
:102380003960FB1D1A70FB1D1B787F2B32D92F4C37
:10239000FB1D1B781A000F231340083B99082B4A9A
:1023A000FB1D1B7818000F230340083B9B080633D6
:1023B0009B00D31804331B68FA1D12781000032207
:1023C0000240D200FF2090400200D2431A403B68F6
:1023D0009B01FF201840FB1D1B781D0003232B4091
:1023E000DB00984003001A438B1D9B00E318043365
:1023F0001A6027E0164CFB1D1B785BB29B08144942
:10240000FA1D127852B29208C03292005258F91D49
:102410000978080003210140C900FF20884001001D
:10242000C94311403A689201FF201040FA1D12780A
:10243000150003222A40D200904002000A43C03314
:102440009B001A51C046BD4602B0B0BD00ED00E091
:1024500000E100E080B582B000AF78607B68013BAE
:102460000C4A934201D9012310E00B4B7A68013AE0
:102470005A6001235B4203211800084B9847064B22
:1024800000229A60044B07221A6000231800BD4600
:1024900002B080BDFFFFFF0010E000E079230000E4
:1024A00080B584B000AF0200FB1D1A700F23FB182B
:1024B000FA1D1278D2091A700E23FB18FA1D127831
:1024C00052091A700D4BBB600F23FB181B78002BB1
:1024D0000FD10F23FB181B789B0010229446BC449D
:1024E0006344083B1A680E23FB181B78DB01D318E2
:1024F00000E000231800BD4604B080BD006000412C
:1025000080B582B000AF0200FB1D1A70FB1D1B7866
:102510001800034B984703001800BD4602B080BD69
:10252000A124000080B582B000AF78607B680022F3
:102530001A707B6801225A707B6800229A70C0462C
:10254000BD4602B080BD000080B584B000AF02007F
:10255000FB1D1A70BB1D0A1C1A70FB1D1B7818008E
:102560000D4B98470300FB60FB1D1B781F22134097
:1025700001229A401300BB60BB1D1B78002B03D0C7
:10258000FB68BA689A6102E0FB68BA685A61C046A3
:10259000BD4604B080BDC0460125000080B584B0B2
:1025A00000AF0200FB1D1A70FB1D1B781800094BC1
:1025B00098470300FB60FB1D1B781F22134001227C
:1025C0009A401300BB60FB68BA68DA61C046BD463A
:1025D00004B080BD0125000080B500AF044B01228E
:1025E0001A70BFF35F8F62B6C046BD4680BDC0465D
:1025F0000800002080B500AF5B20024B9847C04622
:10260000BD4680BD9D25000080B582B000AF3B1D5A
:102610001800094B98473B1D01221A703B1D1900F9
:102620005B20064B984701215B20054B9847C0462D
:10263000BD4602B080BDC0462525000049190000F6
:102640004925000080B500AF0A4B984700200A4B8F
:10265000984703001800094B9847094B9847094BC6
:102660009847094B9847094B9847094B9847094B9E
:102670009847FEE7B9220000F11E00005524000033
:10268000AD16000011170000D92500000926000032
:1026900009010000D1070000002243088B4274D3D7
:1026A00003098B425FD3030A8B4244D3030B8B4253
:1026B00028D3030C8B420DD3FF22090212BA030C5C
:1026C0008B4202D31212090265D0030B8B4219D33D
:1026D00000E0090AC30B8B4201D3CB03C01A52415D
:1026E000830B8B4201D38B03C01A5241430B8B42A5
:1026F00001D34B03C01A5241030B8B4201D30B038E
:10270000C01A5241C30A8B4201D3CB02C01A5241B4
:10271000830A8B4201D38B02C01A5241430A8B4277
:1027200001D34B02C01A5241030A8B4201D30B0260
:10273000C01A5241CDD2C3098B4201D3CB01C01A7A
:10274000524183098B4201D38B01C01A5241430984
:102750008B4201D34B01C01A524103098B4201D372
:102760000B01C01A5241C3088B4201D3CB00C01ADF
:10277000524183088B4201D38B00C01A5241430857
:102780008B4201D34B00C01A5241411A00D201467C
:10279000524110467047FFE701B5002000F006F8EF
:1027A00002BDC0460029F7D076E770477047C046A3
:1027B00070B500260C4D0D4C641BA410A64209D127
:1027C000002600F04BF80A4D0A4C641BA410A642E8
:1027D00005D170BDB300EB5898470136EEE7B30062
:1027E000EB5898470136F2E7682800006828000097
:1027F000682800006C2800004C45445F4F4E0000E4
:1028000049444C45000000000020004200240042E2
:1028100000280042002C0042171718180200000080
:1028200000010000020000000002000002000000A1
:102830000004000002000000000800001E1B000051
:10284000941B0000941B0000381B00003E1B00007E
:10285000241B0000441B00007A1B0000F8B5C04692
:10286000F8BC08BC9E467047D1000000F8B5C046D1
:0C287000F8BC08BC9E467047A9000000A0
:0C287C00AAAAAAAA101112130100000061
:04000003000022EDEA
:00000001FF
