:10000000C8580020811A0000051B0000051B0000D5
:1000100000000000000000000000000000000000E0
:10002000000000000000000000000000410400008B
:10003000000000000000000061050000A9050000AC
:10004000051B0000051B0000051B0000051B000030
:10005000051B0000051B0000051B0000051B000020
:10006000051B0000051B0000051B0000051B000010
:10007000051B0000051B0000051B0000051B000000
:10008000BD0E0000D10E0000E50E0000F90E0000CC
:10009000051B0000051B0000051B0000051B0000E0
:1000A000051B0000051B000010B5064C2378002B33
:1000B00007D1054B002B02D0044800E000BF01230C
:1000C000237010BD0800002000000000601F000029
:1000D000084B10B5002B03D00749084800E000BFCB
:1000E00007480368002B00D110BD064B002BFBD046
:1000F0009847F9E7000000000C000020601F000096
:10010000601F00000000000090B585B002AF1049EC
:100110001048114B019301230093002328220F4C18
:10012000A04703007B607B68012B0BD10C490D4875
:100130000D4B01930123009300232822074CA04775
:1001400003007B607B681800BD4603B090BDC046CD
:10015000081F000045020000B0380020C106000062
:10016000101F000061020000B438002080B584B088
:1001700000AF0200FB1D1A700F23FB18FA1D127846
:10018000D2091A700E23FB18FA1D127852091A7040
:100190000D4BBB600F23FB181B78002B0FD10F23D7
:1001A000FB181B789B0010229446BC446344083B18
:1001B0001A680E23FB181B78DB01D31800E000231C
:1001C0001800BD4604B080BD0060004180B582B01B
:1001D00000AF0200FB1D1A70FB1D1B781800034BBB
:1001E000984703001800BD4602B080BD6D010000B5
:1001F00080B584B000AF0200FB1D1A70BB1D0A1C45
:100200001A70FB1D1B7818000D4B98470300FB600C
:10021000FB1D1B781F22134001229A401300BB6074
:10022000BB1D1B78002B03D0FB68BA689A6102E003
:10023000FB68BA685A61C046BD4604B080BDC0467E
:10024000CD01000080B500AF01215B20024B984733
:100250001E20024B9847F7E7F1010000310900002A
:1002600080B500AF00215B20024B98471E20024B57
:100270009847F7E7F10100003109000080B582B02E
:1002800000AF78607B6808331A007B685A607B682F
:10029000012252429A607B6808331A007B68DA6058
:1002A0007B6808331A007B681A617B6800221A6039
:1002B000C046BD4602B080BD80B582B000AF786058
:1002C0007B6800221A61C046BD4602B080BD80B581
:1002D00084B000AF786039607B685B68FB603B6826
:1002E000FA685A60FB689A683B689A60FB689B688A
:1002F0003A685A60FB683A689A603B687A681A61A3
:100300007B681B685A1C7B681A60C046BD4604B0F7
:1003100080BD80B584B000AF786039603B681B68F1
:10032000BB60BB68013303D17B681B69FB600CE0D9
:100330007B680833FB6002E0FB685B68FB60FB687E
:100340005B681A68BB689A42F6D9FB685A683B68D2
:100350005A603B685B683A689A603B68FA689A60E2
:10036000FB683A685A603B687A681A617B681B6868
:100370005A1C7B681A60C046BD4604B080BD80B57B
:1003800084B000AF78607B681B69FB607B685B684A
:100390007A6892689A607B689B687A6852685A604B
:1003A000FB685A687B689A4203D17B689A68FB684D
:1003B0005A607B6800221A61FB681B685A1EFB6842
:1003C0001A60FB681B681800BD4604B080BD0000C1
:1003D00080B584B000AFF860B9607A60FB68043B18
:1003E000FB60FB68802252041A60FB68043BFB60E0
:1003F000BA68FB681A60FB68043BFB60084AFB684C
:100400001A60FB68143BFB607A68FB681A60FB6843
:10041000203BFB60FB681800BD4604B080BDC046B1
:100420002504000080B582B000AF00237B6072B667
:10043000C0467B68002BFCD0C046BD4602B080BDE4
:1004400080B500AFC046BD4680BD00000000000082
:100450000B4A13681868203080F30988022080F363
:100460001488BFF36F8F3FBCAE4608BC04BC62B6B5
:100470001847C046C046C046C046C046C046C046F3
:10048000A4370020C046C04680B500AF0E4B0E4AD0
:100490001268FF2109040A431A600B4B0A4A1268CA
:1004A000FF2109060A431A60084B9847084B0022AF
:1004B0001A60084B9847084B9847084B9847002309
:1004C0001800BD4680BDC04620ED00E0E9050000F3
:1004D0000000002051040000810C000025040000F1
:1004E00080B500AF054B802252051A60BFF34F8FD5
:1004F000BFF36F8FC046BD4680BDC04604ED00E02F
:1005000080B500AF72B6064B1B685A1C044B1A60CC
:10051000BFF34F8FBFF36F8FC046BD4680BDC0464F
:100520000000002080B500AF064B1B685A1E054B2B
:100530001A60044B1B68002B00D162B6C046BD4652
:1005400080BDC04600000020EFF3108072B67047F7
:10055000C046180080F310887047C04600000000B5
:10056000EFF309800E4B1A6820381060F0C0444643
:100570004D4656465F46F0C008B572B600F080FBA7
:1005800062B60CBC116808681030F0C8A046A946D5
:10059000B246BB4680F309882038F0C81847C046E9
:1005A000A4370020C046C04680B582B000AF0A4BD9
:1005B000984703007B60094B9847031E03D0084B04
:1005C000802252051A607B681800064B9847C04687
:1005D000BD4602B080BDC04649050000250B0000A5
:1005E00004ED00E05505000080B500AF074B002288
:1005F0001A60074B00221A60064B074A1A60034B29
:1006000007221A60C046BD4680BDC04610E000E02B
:1006100018E000E014E000E032BB000080B584B0D8
:1006200000AF78600023FB607B680722134004D092
:100630007B680722934308337B60174B9847174B1F
:100640001B68002B05D1164B072293431A00134B4E
:100650001A60144B1A687B68D318134A934213D854
:10066000104B1A687B68D2180E4B1B689A420BD944
:100670000A4B1A680B4B1B68D318FB60094B1A68AE
:100680007B68D218074B1A60084B9847FB68180024
:10069000BD4604B080BDC046E5090000A03700207B
:1006A0002C0000209C3700206F370000FD0900005F
:1006B00080B582B000AF7860C046BD4602B080BD54
:1006C00090B58DB004AFF860B9603B60BB1D1A8077
:1006D000BB1D1B889B0018001D4B984703007B61C6
:1006E0007B69002B10D04C20194B98470300FB610D
:1006F000FB69002B03D0FB697A691A6306E07B690A
:100700001800144B984701E00023FB61FB69002BA4
:1007100016D0BB1D1A883C68B968F868002303939B
:10072000FB6902937B6B01933B6B009323000A4CA4
:10073000A047FB691800094B98470123BB6102E001
:1007400001235B42BB61BB691800BD4609B090BD87
:100750001D060000B10600006107000055080000FA
:1007600080B586B000AFF860B9607A603B60BB6A64
:100770001A6B7B6834498C4663449B00D3183B61F9
:100780003B69072293433B61BB68002B20D00023C9
:100790007B6113E0BA687B69D3181878BA6A342190
:1007A0007B69D3185B18021C1A70BA687B69D3186E
:1007B0001B78002B06D07B6901337B617B690F2B93
:1007C000E8D900E0C046BB6A43220021995403E007
:1007D000BB6A3422002199543B6A042B01D90423BB
:1007E0003B62BB6A3A6ADA62BB6A04331800174B91
:1007F0009847BB6A18331800144B9847BB6ABA6A0B
:100800001A613B6A0522D21ABB6A9A61BB6ABA6A4C
:100810005A62BB6A00225A64BB6A4822002199547A
:100820003A68F9683B691800094B98470200BB6AAF
:100830001A607B6A002B02D07B6ABA6A1A60C046D3
:10084000BD4606B080BDC046FFFFFF3FB9020000B5
:10085000D103000080B582B000AF7860294B984783
:10086000294B1B685A1C284B1A60284B1B68002B0D
:1008700009D1264B7A681A60234B1B68012B10D1D3
:10088000234B98470DE0234B1B68002B09D11F4BCE
:100890001B68DA6A7B68DB6A9A4202D81B4B7A686B
:1008A0001A601D4B1B685A1C1B4B1A607B68DA6A66
:1008B0001A4B1B689A4203D97B68DA6A174B1A6095
:1008C0007B68DA6A13009B009B189B00144A9A18F5
:1008D0007B68043319001000124B9847124B98475D
:1008E0000C4B1B68002B08D0084B1B68DA6A7B682E
:1008F000DB6A9A4201D20D4B9847C046BD4602B012
:1009000080BDC0460105000064380020A4370020E7
:10091000410D000070380020803800206C38002025
:10092000A8370020CF02000025050000E1040000E8
:1009300080B584B000AF78600023FB607B68002B3B
:100940000AD00A4B98477B6800211800084B98474B
:10095000084B98470300FB60FB68002B01D1064B56
:100960009847C046BD4604B080BDC046E5090000BA
:10097000090E0000FD090000E104000090B585B0FB
:1009800002AF10491048114B01930023009300233C
:1009900064220F4CA04703007B607B68012B0CD1C5
:1009A00072B60C4B012252421A600B4B01221A60A4
:1009B0000A4B00221A600A4B9847C046BD4603B056
:1009C00090BDC046181F0000190D00008838002097
:1009D000C1060000843800207038002068380020EC
:1009E0008904000080B500AF034B1B685A1C024B02
:1009F0001A60C046BD4680BD8C38002080B584B0EA
:100A000000AF0023FB600023BB60374B9847374B98
:100A10001B685A1E354B1A60344B1B68002B5BD188
:100A2000334B1B68002B57D02FE0324BDB68DB6861
:100A3000FB60FB68183318002F4B9847FB680433A2
:100A400018002D4B9847FB68DA6A2C4B1B689A42BA
:100A500003D9FB68DA6A294B1A60FB68DA6A13006B
:100A60009B009B189B00264A9A18FB6804331900C8
:100A70001000244B9847FB68DA6A234B1B68DB6A3B
:100A80009A4202D3214B01221A601A4B1B68002B99
:100A9000CBD1FB68002B01D01D4B98471D4B1B6829
:100AA0007B607B68002B0FD01B4B9847031E02D046
:100AB000164B01221A607B68013B7B607B68002B30
:100AC000F2D1144B00221A60104B1B68002B03D08C
:100AD0000123BB60114B9847114B9847BB68180026
:100AE000BD4604B080BDC046010500008C38002022
:100AF000643800203C3800207F0300006C38002060
:100B0000A8370020CF020000A4370020783800204A
:100B1000CD0D000074380020250B0000E10400001A
:100B20002505000080B586B000AF00237B61464BF1
:100B30001B68002B00D077E0444B1B6801333B61FE
:100B4000424B3A691A603B69002B10D1404B1B683D
:100B5000FB60404B1A683E4B1A603E4BFA681A60C5
:100B60003D4B1B685A1C3C4B1A603C4B98473C4B16
:100B70001B683A699A4249D3354B1B681B68002BA6
:100B800004D1374B012252421A603FE0304B1B68C0
:100B9000DB68DB68BB60BB685B687B603A697B686D
:100BA0009A4203D22E4B7A681A602FE0BB68043356
:100BB00018002C4B9847BB689B6A002B04D0BB687D
:100BC00018331800274B9847BB68DA6A264B1B6816
:100BD0009A4203D9BB68DA6A234B1A60BB68DA6AA7
:100BE00013009B009B189B00204A9A18BB68043393
:100BF000190010001E4B9847BB68DA6A1D4B1B6832
:100C0000DB6A9A42B8D301237B61B5E7194B1B68B5
:100C1000DA6A164913009B009B189B005B58012B56
:100C200007D901237B6104E0134B1B685A1C124B4C
:100C30001A60124B1B68002B01D001237B617B697A
:100C40001800BD4606B080BD8C38002068380020F2
:100C500034380020383800207C380020CD0D0000CA
:100C6000843800207F0300006C380020A837002063
:100C7000CF020000A437002074380020783800200C
:100C800080B582B000AF1F4B1B68002B03D01E4BFA
:100C900001221A6032E01C4B00221A601B4B1B68B9
:100CA0007B6002E07B68013B7B6019497A68130036
:100CB0009B009B189B005B58002BF3D07A681300B5
:100CC0009B009B189B00124A9B183B603B685B682B
:100CD0005A683B685A603B685A683B6808339A42D6
:100CE00004D13B685B685A683B685A603B685B6844
:100CF000DA68084B1A60054B7A681A60C046BD4630
:100D000002B080BD8C380020783800206C3800207C
:100D1000A8370020A437002080B582B000AF7860EB
:100D2000044B9847044B1B68012BF9D9034B984798
:100D3000F6E7C046C10D0000A8370020E10400001E
:100D400080B582B000AF00237B600CE07A681300AE
:100D50009B009B189B00124A9B181800114B984748
:100D60007B6801337B607B68042BEFD90E4B180046
:100D70000C4B98470D4B18000A4B98470C4B18002A
:100D8000084B98470B4B1800064B98470A4B064AEE
:100D90001A600A4B054A1A60C046BD4602B080BDC3
:100DA000A83700207D0200000C38002020380020E9
:100DB0003C380020503800203438002038380020DB
:100DC00080B500AFC046BD4680BD000080B582B092
:100DD00000AF0B4B1B681B68002B04D1094B012291
:100DE00052421A6008E0064B1B68DB68DB687B60D8
:100DF0007B685A68034B1A60C046BD4602B080BD8E
:100E0000343800208438002080B584B000AF78608A
:100E10003960214B1B68FB60204B1B6804331800B2
:100E20001F4B98477B6801330BD13B68002B08D0E0
:100E30001A4B1B681A1D1B4B110018001A4B9847C0
:100E400026E0FA687B68D318BB60144B1B68BA684D
:100E50005A60BA68FB689A4209D2144B1A680F4B61
:100E60001B68043319001000114B984710E0114B18
:100E70001A680A4B1B680433190010000C4B984782
:100E80000D4B1B68BA689A4202D20B4BBA681A60C3
:100E9000C046BD4604B080BD68380020A43700209D
:100EA0007F03000050380020CF02000038380020B7
:100EB00013030000343800208438002080B500AFD0
:100EC0000020024B9847C046BD4680BD0D0F000074
:100ED00080B500AF0120024B9847C046BD4680BD9B
:100EE0000D0F000080B500AF0220024B9847C046AE
:100EF000BD4680BD0D0F000080B500AF0320024B42
:100F00009847C046BD4680BD0D0F000080B584B037
:100F100000AF0200FB1D1A70FB1D1A78284B9200CF
:100F2000D358FB60FB681B689B7ADBB2FA68127EC1
:100F30001340DAB2FB68597E0B23FB180A401A7083
:100F40000B23FB181B780122134008D0FB689B6819
:100F5000FA6810009847FB681B6801229A720B23FD
:100F6000FB181B780222134008D0FB68DB68FA6884
:100F700010009847FB681B6802229A720B23FB182B
:100F80001B781022134008D0FB681B69FA68100018
:100F90009847FB681B6810229A720B23FB181B787A
:100FA0002022134008D0FB685B69FA68100098475C
:100FB000FB681B6820229A72C046BD4604B080BD03
:100FC000B838002080B582B000AF104B1B68002BF2
:100FD00012D1EFF310837B607B68002B09D172B6CE
:100FE000BFF35F8F0A4B00221A700A4B01221A705E
:100FF00002E0084B00221A70044B1B685A1C034B7A
:101000001A60C046BD4602B080BDC0469038002080
:10101000040000209438002080B500AF0B4B1B6803
:101020005A1E0A4B1A60094B1B68002B0AD1084B49
:101030001B78DBB2002B05D0064B01221A70BFF3E0
:101040005F8F62B6C046BD4680BDC0469038002066
:10105000943800200400002080B584B000AF020066
:10106000FB1D1A700F23FB18FA1D1278D2091A7093
:101070000E23FB18FA1D127852091A700D4BBB6033
:101080000F23FB181B78002B0FD10F23FB181B78A5
:101090009B0010229446BC446344083B1A680E230C
:1010A000FB181B78DB01D31800E000231800BD46B5
:1010B00004B080BD0060004180B582B000AF020086
:1010C000FB1D1A70FB1D1B781800034B984703008B
:1010D0001800BD4602B080BD5910000080B582B036
:1010E00000AF78607B6800221A707B6801225A701A
:1010F0007B6800229A70C046BD4602B080BD0000E9
:1011000080B584B000AF0200FB1D1A70BB1D0A1C25
:101110001A70FB1D1B7818000D4B98470300FB60ED
:10112000FB1D1B781F22134001229A401300BB6055
:10113000BB1D1B78002B03D0FB68BA689A6102E0E4
:10114000FB68BA685A61C046BD4604B080BDC0465F
:10115000B910000080B582B000AF3B1D18000E4BE7
:1011600098473B1D01221A703B1D19005B200B4B59
:10117000984701215B200A4B98473B1D00221A70BB
:101180003B1D01225A703B1D19004120034B98471B
:10119000C046BD4602B080BDDD100000CD1100008C
:1011A0000111000080B582B000AF78607B688022BA
:1011B0001A707B6800225A707B6801229A707B68E3
:1011C0000022DA70C046BD4602B080BD80B584B052
:1011D00000AF02003960FB1D1A700C23FB181800C9
:1011E000104B98470C23FB1880221A703B681A7822
:1011F0000C23FB185A703B685A780C23FB189A7022
:101200003B689A780C23FB18DA700C23FA18FB1D44
:101210001B7811001800044B9847C046BD4604B027
:1012200080BDC046A5110000F919000080B582B04C
:1012300000AF78607B6801225A607B6800225A7098
:101240007B6805221A707B6800221A727B68002274
:101250005A72C046BD4602B080BD000080B582B063
:1012600000AF0200FB1D1A70054AFB1D1B7801210F
:1012700099400B00DBB21371C046BD4602B080BD81
:101280000008004080B582B000AF0200FB1D1A705C
:10129000054AFB1D1B78012199400B00DBB29371BD
:1012A000C046BD4602B080BD0008004080B500AF1A
:1012B0000020074B98470200064B1B79DBB2190050
:1012C000054B1000984703001800BD4680BDC0467E
:1012D0007517000000080040A91D000080B582B00D
:1012E00000AF0200FB1D1A70084AFB1D1B780F217E
:1012F0000B40D9B253680F20014049001E208343A0
:101300000B435360C046BD4602B080BD0040004163
:1013100080B582B000AF0200FB1D1A70114B9B78A4
:10132000DBB2FA1D12789A4201D1002315E00D4B71
:101330009B78DBB25BB2002B01DA17230DE0094B7F
:1013400001229A71074AFB1D1B789370C046054B1A
:101350009B79DBB2002BFAD000231800BD4602B007
:1013600080BDC0460004004080B500AFC046044BBD
:10137000DA6880235B001340F9D0C046BD4680BDCB
:101380000010004080B582B000AF0200FB1D1A7053
:10139000FB1D1B78072B3FD89A00224BD3181B68E4
:1013A0009F46214B1B6938E0204B1B7D1B079B0F81
:1013B000DBB201331A001E4B53432EE080231B0285
:1013C0002BE0194B5B6928E0174B1B680222134086
:1013D00001D1002321E0174B9847134B1B682422AF
:1013E0001340042B09D10020134B984702000E4BE9
:1013F0009B681B041B0C53430FE0104B0DE00B4A82
:101400002823D35CDBB21A000223134001D100234E
:1014100003E0054BDB6800E000231800BD4602B086
:1014200080BDC046201F00009838002000100040FA
:1014300000093D006913000035180000006CDC0253
:1014400080B594B000AF284B802252009A60274BA1
:1014500003229A600020264B98470220254B98478C
:10146000214A137D802149420B4313751E4A137D87
:1014700040218B431375204BDB6906229343FB64A9
:101480001D4BFA6C06210A43DA611C4B9847002079
:101490001B4B984700201B4B98473B0018001A4BEA
:1014A00098473B0005221A703B0001225A603B001E
:1014B00000221A723B0000225A723B0019000020E1
:1014C000124B98470020124B9847124B9847030045
:1014D000BB64BB6C104A934202D80020054B98476E
:1014E000C046BD4614B080BD00100040001800404A
:1014F000DD1200001113000000140040D915000097
:10150000851200005D1200002D1200000916000077
:1015100019170000AD12000000127A0080B582B0E9
:1015200000AF02003960FB1D1A70FB1D1B78012BF8
:101530000AD0022B0FD0002B14D10E4B0D4A51694B
:101540003A680A435A610FE00A4B0A4A91693A68BD
:101550000A439A6108E0074B064AD1693A680A4390
:10156000DA6101E0172300E000231800BD4602B055
:1015700080BDC0460008004080B500AF024B9847D0
:10158000C046BD4680BDC046C50F000080B500AF57
:10159000024B9847C046BD4680BDC04619100000AA
:1015A00080B582B000AF0200FB1D1A70094B5B686A
:1015B000FA1D1278012191400A00920013407C220A
:1015C000134001D0012300E000231800BD4602B003
:1015D00080BDC046001C004080B500AF80210020C7
:1015E000074B9847074B01221A70C046054B1B78E2
:1015F000DBB21A0001231340F8D1C046BD4680BDBE
:101600001D150000001C004080B586B000AF020030
:101610003960FB1D1A703B681B787B613B685B7807
:10162000002B04D07B698022D20013437B613B688E
:101630005B7A002B04D07B698022120113437B610B
:101640003B685B68012B2CD93B685A683B685B6838
:10165000013B13401AD100233B610223FB6005E0EC
:101660003B6901333B61FB685B00FB603B685A6888
:10167000FB689A42F4D83B691B047A6913437B6187
:101680007B698022520113437B610AE03B685B68FF
:101690001B047A6913437B617B69802292001343A8
:1016A0007B613B681B7A002B04D07B69802292010E
:1016B00013437B61C046FB1D1B781800124B9847F3
:1016C000031EF8D1114B98471148FB1D1B78104998
:1016D000FA1D1278083292005158802252001140AF
:1016E0007A690A4308339B001A50C046FB1D1B78D9
:1016F0001800054B9847031EF8D1064B9847C04683
:10170000BD4606B080BDC046A11500007915000099
:10171000001C00408D15000080B582B000AF0200B3
:10172000FB1D1A70C046FB1D1B7818000D4B984717
:10173000031EF8D10C4B98470C48FB1D1B780B4936
:10174000FA1D1278083292005258802149000A434B
:1017500008339B001A50064B9847C046BD4602B05E
:1017600080BDC046A115000079150000001C004096
:101770008D15000080B586B000AF0200FB1D1A7009
:10178000C046FB1D1B781800244B9847031EF8D158
:10179000234B9847234AFB1D1B7808339B009B581B
:1017A0005B075B0FDBB218001F4B984703007B61A0
:1017B0001C4AFB1D1B7808339B009B58DB04DB0F86
:1017C000DAB21323FB181A70164AFB1D1B78083374
:1017D0009B009B581B0C9BB2FB60144B9847132338
:1017E000FB181B78002B09D1FB68012B06D9104B85
:1017F000F9687869984703007B610AE01323FB18B6
:101800001B78002B05D0FB6801337A69DA4013009E
:101810007B617B691800BD4606B080BDA115000044
:1018200079150000001C0040851300008D15000094
:10183000A91D000080B584B000AF0200FB1D1A7026
:101840000D4B98470D4AFB1D1B7820339B009B587E
:101850005B075B0FDAB20F23FB181A70084B98472F
:101860000F23FB181B781800064B9847030018003D
:10187000BD4604B080BDC04679150000001C004084
:101880008D1500007517000080B584B000AF020010
:10189000FB1D1A700F23FB18FA1D1278D2091A705B
:1018A0000E23FB18FA1D127852091A700D4BBB60FB
:1018B0000F23FB181B78002B0FD10F23FB181B786D
:1018C0009B0010229446BC446344083B1A680E23D4
:1018D000FB181B78DB01D31800E000231800BD467D
:1018E00004B080BD0060004180B588B000AFF860F2
:1018F000B9607A600023FB617B68DB78012253408A
:10190000DBB2002B35D07B681B78802B0BD0FB69BA
:10191000802252021343FB617B681B781B061A006E
:10192000FB691343FB617B685B78002B03D07B680A
:101930005B78022B10D1FB69802292021343FB617A
:101940007B689B78002B04D0FB698022D202134372
:10195000FB61FB68BA685A607B685B78012B03D037
:101960007B685B78022B07D1FB69224A1340FB613D
:1019700002E0FB68BA685A60BB681B041B0CBB61C1
:10198000BB681B0C7B61BA69FB691343A022D205BB
:101990001A43FB689A627A69FB691343D0221206E4
:1019A0001A43FB689A627B68DB7801225340DBB202
:1019B000002B1AD0FA698023DB0213400AD07B681F
:1019C0009B78012B03D1FB68BA689A6102E0FB683F
:1019D000BA685A617B685B78012B03D07B685B78BF
:1019E000022B02D1FB68BA689A60C046BD4608B0B7
:1019F00080BDC046FFFFFBFF80B584B000AF020092
:101A00003960FB1D1A70FB1D1B7818000A4B9847A4
:101A10000300FB60FB1D1B781F22134001229A402C
:101A20001300BB603A68B968FB681800034B98471D
:101A3000C046BD4604B080BD89180000E91800000A
:101A400080B500AFC046BD4680BD000080B500AF88
:101A5000064B9847064B9847064B9847064B9847C6
:101A6000064B9847C046BD4680BDC04641140000A5
:101A700055110000411A0000411A0000411A0000EF
:101A800080B582B000AF164B7B60164B3B607A6826
:101A90003B689A420CD007E03B681A1D3A607A68AE
:101AA000111D796012681A603A680F4B9A42F3D39D
:101AB0000E4B3B6004E03B681A1D3A6000221A603E
:101AC0003A680B4B9A42F6D30A4B7B600A4B7A6812
:101AD000FF218A439A60094B9847094B9847FEE7D4
:101AE000601F000000000020080000200800002007
:101AF000C83800200000000000ED00E0C11E00001A
:101B00006D1D000080B500AFFEE70000B0B582B0EB
:101B100000AF02003960FB1D1A70FB1D1B787F2B84
:101B200032D92F4CFB1D1B781A000F231340083BA2
:101B300099082B4AFB1D1B7818000F230340083B14
:101B40009B0806339B00D31804331B68FA1D1278D8
:101B5000100003220240D200FF2090400200D24336
:101B60001A403B689B01FF201840FB1D1B781D009D
:101B700003232B40DB00984003001A438B1D9B007E
:101B8000E31804331A6027E0164CFB1D1B785BB288
:101B90009B081449FA1D127852B29208C032920082
:101BA0005258F91D0978080003210140C900FF209F
:101BB00088400100C94311403A689201FF2010405B
:101BC000FA1D1278150003222A40D200904002002C
:101BD0000A43C0339B001A51C046BD4602B0B0BD97
:101BE00000ED00E000E100E080B582B000AF786079
:101BF0007B68013B0C4A934201D9012310E00B4B57
:101C00007A68013A5A6001235B4203211800084BAD
:101C10009847064B00229A60044B07221A60002363
:101C20001800BD4602B080BDFFFFFF0010E000E0DD
:101C30000D1B000080B584B000AF0200FB1D1A70C0
:101C40000F23FB18FA1D1278D2091A700E23FB1805
:101C5000FA1D127852091A700D4BBB600F23FB1846
:101C60001B78002B0FD10F23FB181B789B00102231
:101C70009446BC446344083B1A680E23FB181B7847
:101C8000DB01D31800E000231800BD4604B080BD7E
:101C90000060004180B582B000AF0200FB1D1A70E9
:101CA000FB1D1B781800034B984703001800BD4626
:101CB00002B080BD351C000080B582B000AF7860F6
:101CC0007B6800221A707B6801225A707B680022B0
:101CD0009A70C046BD4602B080BD000080B584B099
:101CE00000AF0200FB1D1A70BB1D0A1C1A70FB1D01
:101CF0001B7818000D4B98470300FB60FB1D1B78F9
:101D00001F22134001229A401300BB60BB1D1B78A9
:101D1000002B03D0FB68BA689A6102E0FB68BA68DE
:101D20005A61C046BD4604B080BDC046951C000047
:101D300080B582B000AF3B1D1800094B98473B1D92
:101D400001221A703B1D19005B20064B98470121A8
:101D50005B20054B9847C046BD4602B080BDC046DB
:101D6000B91C0000CD110000DD1C000080B500AFE3
:101D7000074B98470020074B984703001800064B75
:101D80009847064B9847064B9847064B9847FEE7FF
:101D90004D1A000075170000E91B0000311D0000FE
:101DA000090100007D090000002243088B4274D322
:101DB00003098B425FD3030A8B4244D3030B8B424C
:101DC00028D3030C8B420DD3FF22090212BA030C55
:101DD0008B4202D31212090265D0030B8B4219D336
:101DE00000E0090AC30B8B4201D3CB03C01A524156
:101DF000830B8B4201D38B03C01A5241430B8B429E
:101E000001D34B03C01A5241030B8B4201D30B0386
:101E1000C01A5241C30A8B4201D3CB02C01A5241AD
:101E2000830A8B4201D38B02C01A5241430A8B4270
:101E300001D34B02C01A5241030A8B4201D30B0259
:101E4000C01A5241CDD2C3098B4201D3CB01C01A73
:101E5000524183098B4201D38B01C01A524143097D
:101E60008B4201D34B01C01A524103098B4201D36B
:101E70000B01C01A5241C3088B4201D3CB00C01AD8
:101E8000524183088B4201D38B00C01A5241430850
:101E90008B4201D34B00C01A5241411A00D2014675
:101EA000524110467047FFE701B5002000F006F8E8
:101EB00002BDC0460029F7D076E770477047C0469C
:101EC00070B500260C4D0D4C641BA410A64209D120
:101ED000002600F035F80A4D0A4C641BA410A642F7
:101EE00005D170BDB300EB5898470136EEE7B3005B
:101EF000EB5898470136F2E74C1F00004C1F0000DA
:101F00004C1F0000501F00004C45445F4F4E000026
:101F10004C45445F4646000049444C4500000000E3
:101F2000A21300001814000018140000BC130000D5
:101F3000C2130000A8130000C8130000FE13000025
:101F4000F8B5C046F8BC08BC9E467047D1000000FA
:101F5000F8B5C046F8BC08BC9E467047A900000012
:081F6000AAAAAAAA01000000D0
:0400000300001A815E
:00000001FF
